:020000040000fa
:080000000002040000000000f2
:020000040000fa
:10000800d6020000da020000e0020000e60200006a
:10001800ec020000d6020000d6020000d602000062
:10002800d6020000d6020000d6020000d602000068
:10003800d6020000d6020000d60200007cd00000e4
:10004800b4c90000d6020000d60200009ab600002b
:1000580096b70000d6020000d6020000d6020000c3
:10006800d6020000d6020000d6020000d602000028
:10007800d6020000d6020000d6020000d602000018
:10008800d6020000d6020000d6020000d602000008
:10009800d6020000e6ca0000d6020000d602000020
:1000a800d6020000d6020000d6020000d6020000e8
:1000b800d6020000d6020000d6020000d6020000d8
:1000c800d6020000d6020000d6020000d6020000c8
:1000d800d6020000d6020000d6020000d6020000b8
:1000e800d602000012cd000018cd0000d602000094
:1000f800d6020000d6020000d6020000d602000098
:10010800d6020000d6020000d6020000d602000087
:10011800d6020000d6020000d6020000d602000077
:10012800d6020000dcb70000d6020000d6020000ac
:10013800d6020000d6020000d6020000d602000057
:10014800d6020000d6020000d6020000d602000047
:10015800d6020000d6020000d6020000d602000037
:10016800d6020000d6020000d6020000d602000027
:10017800d6020000d6020000d6020000d602000017
:10018800d6020000d6020000d6020000d602000007
:10019800d6020000d6020000d6020000d6020000f7
:1001a800d6020000d6020000d6020000d6020000e7
:1001b800d6020000d6020000d6020000d6020000d7
:1001c800d6020000d6020000d6020000d6020000c7
:1001d800d6020000d6020000d6020000d6020000b7
:1001e800d6020000d6020000d6020000d6020000a7
:0801f800d6020000d60200004f
:020000040000fa
:10020800d6020000f2020000f8020000fe02000020
:1002180004030000d6020000d6020000d602000047
:10022800d6020000d6020000d6020000d602000066
:10023800d6020000d6020000d60200007cd00000e2
:10024800b4c90000d6020000d60200009ab6000029
:1002580096b70000d6020000d6020000d6020000c1
:10026800d6020000d6020000d6020000d602000026
:10027800d6020000d6020000d6020000d602000016
:10028800d6020000d6020000d6020000d602000006
:10029800d6020000e6ca0000d6020000d60200001e
:1002a800d6020000d6020000d6020000d6020000e6
:1002b800d6020000d6020000d6020000d6020000d6
:1002c800d6020000d6020000d6020000d6020000c6
:1002d800d6020000d6020000d6020000d6020000b6
:1002e800d602000012cd000018cd0000d602000092
:1002f800d6020000d6020000d6020000d602000096
:10030800d6020000d6020000d6020000d602000085
:10031800d6020000d6020000d6020000d602000075
:10032800d6020000dcb70000d6020000d6020000aa
:10033800d6020000d6020000d6020000d602000055
:10034800d6020000d6020000d6020000d602000045
:10035800d6020000d6020000d6020000d602000035
:10036800d6020000d6020000d6020000d602000025
:10037800d6020000d6020000d6020000d602000015
:10038800d6020000d6020000d6020000d602000005
:10039800d6020000d6020000d6020000d6020000f5
:1003a800d6020000d6020000d6020000d6020000e5
:1003b800d6020000d6020000d6020000d6020000d5
:1003c800d6020000d6020000d6020000d6020000c5
:1003d800d6020000d6020000d6020000d6020000b5
:1003e800d6020000d6020000d6020000d6020000a5
:0803f800d6020000d60200004d
:020000040000fa
:100400000fdf21000e7f22000e0188000000000097
:10041000000020000000e000020032000001200087
:10042000200288000c00070000b62b00010020000d
:100430000f000700000020000000e0000200320072
:100440000000020000000000d49202000000000042
:100450000040da000000fe0020f221000000e00071
:1004600002003200002020009001880000000600f9
:10047000a1028800800078000000eb001a0037001d
:10048000e280400054a0b4009101ba00e280400034
:1004900054a0b4009102ba00e280400054a0b4001d
:1004a0000002eb00472bde00f507b200a601880032
:1004b000602ce10008003a000049eb000201e8006e
:1004c000020039003420ec0002f0a0008301e900b2
:1004d000f9ff3e00040037006128e100010032000e
:1004e0000082eb00040007001101ba000200e000e6
:1004f000e3ff3a000000060004d0a300e20f490029
:100500001c003900810278003549ba000201e80078
:10051000020039003420ec0002f0a0008301e90061
:100520000f0032002549ba000201e800020039003c
:100530003420ec0002f0a0008301e9000800320042
:100540000400e0000600320015c9ba000201e8000c
:10055000020039003420ec0002f0a0008301e90021
:100560008180e80054a0b4000300e000e2ff3a00fc
:10057000000006009102ba00055978008301e900e5
:10058000f7ff3200c82ade00055978008301e90030
:10059000f3ff32000400e000f1ff320011d9ba008d
:1005a000eeff370076490400000000000000fe0066
:1005b000004006008020a9000000fe000040060068
:1005c0008060a9000000fe00004006008040a900f5
:1005d0000000fe00004006008080a9000000fe0030
:1005e000004006008020a9000000fe000040060038
:1005f0008060a9000000fe00004006008040a900c5
:100600000000fe00004006008080a9000000fe00ff
:10061000004006001004b100070035009001b10051
:10062000040034007000b100030035009001b100f7
:1006300001003c0010000500000005006900e10019
:10064000040035006d00e100030034000002b10039
:100650000100320000000500100005008000780055
:100660001106b100030035009101b10001003c000a
:100670000050a100000006000a00fa00e20f50003e
:1006800022003e0074ef8000e10f520006003200ad
:10069000e7512000a6512000845120006551200020
:1006a000e08f530004003a0087502000465020009d
:1006b0002450200005502000000028001500600094
:1006c00003003a00800b780007002800958a730029
:1006d000054020009482620001003a0014a0a000ae
:1006e0008202780006003700940378000710b200f9
:1006f000fdff3200b103fb00070b78008502e90023
:10070000e08f5200f8ff3a00080037003400200064
:10071000c0bf9f00e2bf9f00b4bf9f00d1bf9f003a
:100720006a8057009a0f07006fb99700020078009f
:100730000080fa000000060003f0a200889fbe00bf
:100740008a9fbe008c1f7800b6010700bd013300f0
:100750006450e1004f0032006420e100520032009a
:1007600003826c0007003b000905d0000306d0009f
:10077000820f54000c065d000200390002003200b6
:1007800089017800030678008582550004003d0049
:100790000003fd008103fd008502ea008b85420015
:1007a000840f720002003b0060001000e08018001f
:1007b0006011b8000005eb007a28e1000a0039005a
:1007c00006007800c75ddd00f707b200878075007e
:1007d0002d003700828171000a01780061056000f8
:1007e0008180d1000080d3008502e900f9ff3b0041
:1007f000060440008784480002003b0060041400a7
:10080000e0841c000988a300070032008a8171007f
:1008100082817100610164008904d1000884d300e1
:100820008b05e800170037000978a30013003a0091
:100830000b00e000130034008b05e90008044400bd
:1008400089844c000a4474000978a3000d003a0022
:100850000b00e000070034008b05e90008044400a9
:1008600089844c0001003a000b0020000978a300a5
:10087000f7ff32000001eb000200370082817100b7
:100880000a0178002c0107000cf0a70001f0a0007d
:10089000750137006420e10002003a00838f6c008c
:1008a000750133000801be000200be006e01370072
:1008b000889fbe008a9fbe008c1f780059010700e8
:1008c0001002200002003b00b0dc88005d01370010
:1008d0008a0062006408e10002003a00b0dc88008f
:1008e000650137006108e100fcff32000800be002e
:1008f000030478007200070001f0a100090007005e
:1009000008f0a600040037000001be009104240096
:10091000b0fd200088ff070009f0a70001f0a20049
:1009200051013700889fbe008a9fbe008c9fbe0089
:100930000004be00260107000800be0089067800fa
:100940006420e10008003900040032000160a000ca
:1009500012022000b2dc88005300370091fc230013
:10096000b0fd20004e0037000006eb0009f0a100aa
:1009700003f82300020020000800be00a1000700c9
:100980000600340001f82300000020000801be002a
:100990004b0007000004be002c0020000800be0031
:1009a00093e82300320a2300960007001200340067
:1009b0000801be00d1fd2300703d2b005fff070042
:1009c0000005be00b3f32300f27a26000800be0043
:1009d0003b01070003f823000200200056ff070038
:1009e0000801be0055ff07000a01be0034000700e1
:1009f0000004be000c06e8000800be0001f0a100e3
:100a000002002000039823007e0007000800be00bb
:100a1000160035000801be00290107000005be00d0
:100a200032cd2c0043fb230044ff0700809fbe0013
:100a30001269280003d52b000a00be002001070020
:100a4000620f210013ef2b003cff07000a01be00dc
:100a50001b0107004f01be00190007000801be007e
:100a6000170107000801be0034ff07000c00e0007a
:100a70000b0032000c10a70001f0a200b2fd200014
:100a800093fc23006260e1000400320022a92000f0
:100a900063f023000c10a70063f8230027ff070072
:100aa0000df0a70001f0a2004f06be004f05be00ea
:100ab0004f04be00000006000081eb001702370063
:100ac000889fbe008a9fbe008c1f7800d50007005b
:100ad000dc00330003866c006450e1002e0032001d
:100ae0006420e100330032006150e1002f00320049
:100af0006120e1003100320085855500eb07b00030
:100b00000900200008042000050037000804440004
:100b100089844c000a0031000603430087834b00a0
:100b20000001530081815b00f8ff33000203be0027
:100b30000800a0000804440089844c00f6ff390036
:100b4000c639dd008301730001003200130020006c
:100b50008904d1000884d3000998a300050032005d
:100b60000800a7000300a0008904d1000884d30076
:100b70008b05e8008904d1000884d3000001eb0054
:100b80000281d2006c00070001f0a1000cf0a70068
:100b900001f0a000b40037006420e100b60032008c
:100ba0000801be000200be00f7ff37006120e1002f
:100bb000b10032006000b800f3ff370000002000f1
:100bc00001f82700f0ff3700839f68000100e00074
:100bd00002003d0060001000e08018000300e0000b
:100be00002003d0060011100e0811900c802070009
:100bf0004f00e00002003b0060001000e0801800a1
:100c0000000006001400200093033700f4ff2f00bb
:100c1000910337000001be006d0007000470a700bb
:100c200003f0a1006509b100160032000d00350087
:100c30006828e10006003500f0ff2f00f1ff2700d3
:100c40000300e00013003b00010028000000050045
:100c500000004000818048008502e900fcff3a0066
:100c600008003700f88f420002003c008000eb00d3
:100c7000000005008100d1000080d3008502e8005b
:100c8000fcff3a000300e00002003b00600010009f
:100c9000e0801800000006000001be004c000700c4
:100ca0000470a70003f0a10003f8a30013003a00aa
:100cb0006509b10010003200090035006928e10023
:100cc000020035000100280000000500000040007f
:100cd000818048008502e900fcff3a000000060020
:100ce000f88f4200050035008100d1000080d3005c
:100cf0008502e800fcff3a00000006008000eb00df
:100d0000000005004f89de00820178006d03370086
:100d10006011b8007b0337000001eb0027030700d8
:100d2000040032000200200003f8230001f0a700b5
:100d300081fe070000000600810020006180550050
:100d40000b003d000b00200061fe2f000100e100c0
:100d50001d00340082817100610164008904d100aa
:100d60000884d3000000e800faff3a007100200078
:100d7000610064000300700002006000090032009e
:100d800061044400e0844c000988a500050032009d
:100d90008b05e8006808e10002003a008904d100f0
:100da0000884d300f20f20000258e10005003d0046
:100db000c75ddd00f907b200898075000800780082
:100dc000000006000bf827008b00780000000500eb
:100dd000c70ade00f107b200f50fb20008003200ca
:100de000e1cf4200020032000170a00024000500a3
:100df000810f700001003200040805004400050066
:100e0000810f700002003a00140005008502e9001d
:100e10000000400081c04800fcff3b000170a000c2
:100e2000240005000004be00e9ff07000003be0027
:100e30000405be000200be00e5ff0700844f7500f8
:100e4000000006000200be006450e100050036000c
:100e50006420e100020036000968a30001003a00a6
:100e60000800be000160a0004f0678004f05be00dc
:100e70004f04be0000000600f0ff2f00f1ff270026
:100e8000f9ff3700811f78000100e00002003d00fb
:100e900060001000e08018000300e00002003d0048
:100ea00060011100e0811900290207004f00e000f5
:100eb00002003b0060001000e08018000000060007
:100ec000889fbe008a9fbe008c1f7800d5ff070058
:100ed000dcff330003866c006450e1002400320024
:100ee0006420e100270032006150e100220032005e
:100ef0006120e100210032008b854200eb07b10048
:100f00000134b800003ab8000804420089844a005d
:100f1000013ab8000030b8008880400009014a005a
:100f200004003300000040008180480002014900b5
:100f30008b05e900c909dd00830170000100320062
:100f400013002000c814de004814dd004709de004d
:100f50001200b200c808de000884700076ff0700a7
:100f600001f0a1000cf0a70001f0a000beff3700c7
:100f70006120e100c0ff32000801be000200be0097
:100f8000f7ff37006150e100fcff3a00baff37007d
:100f90000c00fa00889fbe008a9fbe008c9fbe0096
:100fa000a0ff07000206be00840578000200be0014
:100fb000020020008102070005003a008b02b30006
:100fc000120020007d02070001003a00f8856d0044
:100fd0000c01be00c60007000800be009b003200e6
:100fe0000b08a3009e003a000df0a7000be0a00044
:100ff00009f0a7000bf0a00009f0a1000801be0055
:10100000bb0007000bf0a6009500320001003c0079
:101010000bd0a0008acf7500b20033006000b8008a
:101020006250e10099003900a1003e000b28a300a6
:10103000a2003a000bf8a300060032000b58a300f0
:10104000a70032000801be00a90007000800be008a
:10105000940032000800be00e90107000004be0051
:10106000050578000bf0a7000b30a6000bf0a100df
:101070005b079800324f200053f32300e1fe070086
:1010800005003d000800be00120020001d030700ff
:101090000004be000a05e9004a0798006150b90043
:1010a00018ff0700008fbe000c01be0084ff070080
:1010b000d8fe0700300798000100e00002003d0064
:1010c00060001000e0801800f2ff2700820f50003f
:1010d000e08f580064003e000c00be00cdfe07000b
:1010e00020079800f2072000820f5000e08f580080
:1010f00005003c0012f82f00f3ff2f00820f500074
:10110000838f580009003d000a00e0000300320010
:1011100001003c000201ea00020578006000b8000e
:10112000200798003a079800190037003e00900009
:101130006100b900f3fe0700809fbe000c00be00f6
:101140004109dd004811de007208b1001b020700f2
:101150000005be001e01be0059ff07004f01be0082
:1011600075fd0700809fbe000c00be000a01be0096
:1011700071fd07001e01be0051ff07004f01be00b8
:101180006efd07008221270013f323004cff0700a8
:101190000005be002e0090006100b900d9fe0700d6
:1011a00001f0a2000c01be0064fd07000006be00b5
:1011b0000800be00f50207000c01be0040ff07005a
:1011c0000a01be005dfd0700809fbe004a000700c7
:1011d0002e0590000af0a7000a05ea000500370076
:1011e0000800be000801be0035ff07000004be0075
:1011f0000c00be000801be000a00a70030ff070077
:101200000006be000a05d100f5ff3a005e0190001d
:1012100002e0a600030037000001be003600070010
:1012200027fe07000004be004f00be00810107003a
:101230000801be0022ff07003e019000b102070036
:10124000de0590000bf0a70001f0a2004f06be00e3
:101250004f05be004f04be000080fa0000000600eb
:1012600025000700f9ff3700270007006000b800dd
:101270000bd0a7000bc0a0000be0a7000bc0a20082
:101280000bc0a70001f82700f0ff37000df8a300fe
:10129000020032001e000700190007000bf8a3002f
:1012a000eaff32000b30a70001f0a200e7ff370091
:1012b0000df8a300f9ff3a00f7ff37000801be0060
:1012c0000b000700e6ff320001003c000df0a20019
:1012d0006000b8000df0a70009000700dbff370031
:1012e0000b000700f1ff2700f0ff2f00d7ff3700aa
:1012f0000100070043fe370001f82300000005004d
:1013000001f827000000050020022000010037003e
:1013100010022000b0dc880000000600889fbe009c
:101320008a9fbe008c9fbe00820578000004be002c
:10133000a7fe07000800be006420e1000700390096
:1013400002003a00f1ff2700f0ff2f000160a0002b
:1013500012022000b2dc8800550037006120e10055
:1013600003003a000b00a70001f8230050003700eb
:1013700001f0a100020021009364240021fe070077
:101380000800be0004003500b2fd2000930c2400cc
:101390000b0207000004be000005eb000b00a600d6
:1013a0004f0dde0001f0a1000004be0032982f00b6
:1013b00023ea2300c2fe07000001eb0003f0230034
:1013c0000b00a70003f82300dcfc070011fe070058
:1013d0000000a7000a00a2004afe07000b00e00080
:1013e000030032000200200003f02300d2fc0700bb
:1013f00001f0a2000006be000200200093042400b9
:10140000affe07000801be00ccfc0700809fbe00b5
:101410000c00be0022a22a00d3a72300a8fe0700ca
:101420004f01be00c5fc07000004be0001f0a10092
:101430000200200003982300f2fd07000800be0010
:10144000190035000001be009dfe07000006be0029
:10145000b2c52900e362230099fe070022222b0077
:10146000f3942b00b5fc07000c01be0094fe0700ae
:10147000e273280083c02300b0fc07000c01be000b
:101480008ffe070042aa2a00a3e22b00abfc070054
:101490000c01be008afe07000801be0088fe07009e
:1014a0000801be00a5fc07000a00a70001f0a20089
:1014b0004f06be004f05be004f04be0000000600f0
:1014c0000001eb0095ff3700889fbe008a9fbe0099
:1014d0008c1f78000004be003dfe07000478a300c6
:1014e00026003a006120e1002500320009f8a3003f
:1014f00025003a006420e10021003200f507b10028
:101500000508a3000200320000004000818048006e
:101510006044b800031020000200200000004000da
:10152000818048000805440089854c000a05410077
:101530008b8549000a0550008b8558000300330055
:101540000a00be0002047400838474008301d10089
:101550000281d300830f7100f0ff3a008904d100ab
:101560000884d3006001490082017800c1adde002b
:10157000fb07b000f0fd07003bfe37000960a0004c
:101580000800be0038fe370012022000b2dc8800de
:10159000f0ff2f00f1ff270033fe3700889fbe00c9
:1015a0008a9fbe000004be0009fe07000800be00be
:1015b0006420e1000700390002003a00f1ff270033
:1015c000f0ff2f000160a00012022000b2dc8800b2
:1015d0004c00370001f0a10002802000935c240041
:1015e00088fd07000800be0004003500b2fd2000a1
:1015f00093042400720107000004be0032982f00fb
:1016000023f223002efe07000200200003f0230037
:1016100001f0a70003f0a00048fc07007dfd0700d3
:10162000801f7800b7fd070001f0a2000005be0092
:101630000200200093fc230021fe07000801be00e9
:101640003efc0700809fbe000a00be0022a22a00c6
:10165000d39f23001afe07004f01be0037fc07008e
:101660000004be0001f0a100020020000398230046
:1016700066fd070003003d000000200001f8230084
:10168000180037000800be000001be000cfe070075
:101690000005be00823b230043dc2b0008fe070050
:1016a0000801be0006fe07000801be0023fc07007b
:1016b0000004be000a00be0052372300f3c123001d
:1016c000fffd0700f27a2b00b3ed2b001bfc070097
:1016d0000a01be00fafd07000200200003f8230003
:1016e00016fc07004f00a600030037000801be00eb
:1016f00003f0a200020037000001be000800be0097
:10170000effc07004f05be004f04be0000000600be
:101710006022b800060220000000d0008180d200c4
:101720000482d2008582d2000000a0000202520092
:1017300083825a00030031000202420083824a0081
:101740000000a1000603e900f3ff3a0000000600d4
:10175000efff07000400be0000000600889fbe00e7
:101760008a9fbe008c1f78000006eb00e00f50003f
:10177000e08f5800e00f5900e08f590007003d004e
:101780006044b8006055b8001c0020000000540000
:1017900081805c0002015d0083815d00e00f5200ea
:1017a000e08f5a00e00f5b00e08f5b0007003d0018
:1017b0006044b8006055b8000c00a2000402540058
:1017c00085825c0006035d0087835d00c60107001b
:1017d000e00f5600060032006022b8006033b80007
:1017e0000000520081805a0002015b0083815b008f
:1017f0004f0678004f05be004f04be0000000600f3
:101800000003be0072fd07006220e100020032000a
:101810000600be0005000500e507b100f107b200b3
:1018200004f023008480700007f0a70001f0a000fe
:1018300024000500889fbe008a9fbe008c9fbe00ca
:101840000004be0062fd07000800be006420e10045
:1018500048003e005500320072212700132b24005f
:10186000eafc070047003c000800be00c2ec28006c
:10187000e32c2c00e3fc0700470035000800be0005
:1018800001f0a1000200200003382300ddfc070066
:10189000430035000800be00b2a32a0083fb2300ea
:1018a00087fd07000200200003f0230001f0a700dd
:1018b00003f0a000a1fb0700d6fc07000005be0056
:1018c00010fd070001f0a2000006be000200280083
:1018d00013f323007afd07000801be0097fb070001
:1018e000809fbe000c00be0032082800e3952b004c
:1018f00073fd07004f01be0090fb07000006be000d
:101900000001be006efd0700809fbe004241250021
:1019100083b823006afd07000200200003e82300cb
:1019200086fb07000c01be0065fd07000006be0037
:101930004f00be00f2f92b00c3d4230060fd070066
:101940000200200003f023007cfb07000c01be0016
:1019500079fb07000001be000c00be0058fc070028
:101960000200200003f0230074fb07006101450022
:10197000e40007004f06be004f05be004f04be0046
:101980000000060001f827000000200022022000cd
:10199000b2dc8800f7ff37006000b800fbff3700bb
:1019a00001f8230000002000f2ff370009f8a3002f
:1019b000f0ff32006000b800eeff3700889fbe00e5
:1019c0008a9fbe000003be0001fd07008505780068
:1019d00082815200020020006220e10004003a00ef
:1019e000f307b100040035007718e100040035006a
:1019f0000600be00140037006000b8000f0037007a
:101a0000f50f2000faff2f008502d1000a85d300d0
:101a10008301e900fcff3b00818462000004650053
:101a2000890f7400f2ff32008582ea000a85ea001d
:101a30008184620000046500bffc070007f0a70076
:101a400001f0a0000081eb000200e0004f05be00a5
:101a50004f04be0000000600889fbe008a9fbe00a3
:101a6000841f7800effc07004f007800110033005e
:101a7000f0ff2f00838f6c0006003b00040565001b
:101a80000a00a7000800370009f0a6001000200097
:101a900008003700820f5400838f5c000300390078
:101aa0001000200001003e000000200009f0a70007
:101ab0000000ea004f05be004f04be000000e00039
:101ac00000000600881f7800030478000300e0008f
:101ad00007003d0060001000e08018006001190060
:101ae000e081190002003b0001f02d0003003700e7
:101af0000400070008f0a70001f0a0004f047800e0
:101b000000000600889fbe008a9fbe000082700011
:101b10000402710004827100260032000004be003d
:101b20000200be006011b8006b0920009502200081
:101b30000182cf000a0039000541b1000082cf00c8
:101b4000070039000541b1000982cf0004003900c7
:101b50000541b1000882cf00010039000541b10004
:101b600005425200120032000a003b0082817100df
:101b7000610164008100d1000080d3008984d3001a
:101b80000884d3008b05e8000442e800f7ff3a0020
:101b9000070037000804440089844c000000480016
:101ba000818048008b05e9000442e900f9ff3a0012
:101bb00061fc07004f05be004f04be000000060098
:101bc0000400200000003700889fbe008a9fbe00ee
:101bd0008c1f78004f26dd0092fc070099fc330033
:101be0006120e100430032006250e10041003e000c
:101bf0003e0039006420e1003c00320005825500bf
:101c00000f003b000402e80038003a00800f530048
:101c1000818f5b00350034000800be0003f0a10096
:101c200001f0a60003f0a0000cf0a700c3fa070023
:101c30008dfc37000603430087834b000c464600ab
:101c40000005530081855b00020033000a03be00db
:101c50000c00a0000402e900f6ff3b0085057800b7
:101c60000602430087824b0004003a006000b8007f
:101c700009f0a70001f0a0007bfc37000002520031
:101c800081825a000704e000040033000603430089
:101c900087834b008b05e900faff370009057800c0
:101ca0000604be000203be006011b80022fc07005b
:101cb000e00f5200e08f5a000700350002003c00a0
:101cc0000c08a300040032000601be0003f0a000cf
:101cd0000cf0a70099fa07000a85680001f0a1003e
:101ce0000af0a70001f0a0005ffc37000800be006a
:101cf0005dfc3700100220000cf0a600b0dc88006c
:101d00005dfc37000003be0031fc07006220e100eb
:101d1000020032000600be000000060085024100fd
:101d2000e30f20000328e10005003c00a3fe2f0084
:101d30000328e10007003d000500200001003700f6
:101d4000f50f200020022000b0dc88006000b80001
:101d500008003700130020008381520005003d0079
:101d60008100d1000080d3008301e800fcff3a002d
:101d700005002000c72add00f107b2008580700051
:101d800007f0a70001f0a00000000600889fbe0039
:101d90008a9fbe008c9fbe0099fe070085047800d4
:101da0000005be006420e10049003e006220e10021
:101db00003003200090035000bf8a3004400320094
:101dc0000bf8a3000800320010022000b0dc8800ed
:101dd000f0ff2f00f1ff27003d00370001f82f0032
:101de000000020003a0037003d00070052fa0700cb
:101df0000006be000a00be00324f200053f323004d
:101e000082fb0700060034000c00be00340007000f
:101e100049fa07000006be000a00be0002003700b3
:101e20008904e9000c00be002d00070024fc070017
:101e30002b00070041fa07000001be000c00be00a5
:101e40001ffb07000005be000001be001cfc0700d0
:101e50000006be00a2f32300430d2c0037fa070052
:101e6000809fbe000c00be00d2e32700d3f02b0001
:101e700013fc07004f01be0011fb07000006be0067
:101e80000a01be000efc07000a01be002bfa070083
:101e90000006be006148b9009afb07000005be00bd
:101ea00032082800e3952b0005fc07000c01be005a
:101eb00022fa07000006be000a00be000200280049
:101ec00013f32300fefb07000c01be001bfa070002
:101ed0004f06be004f05be004f04be0000000600c6
:101ee00003f0230002000500889fbe008a9fbe0009
:101ef0008c9fbe000404b8000506b80089044600a3
:101f000060854e000606b8000a054600e0854e00d2
:101f10000706b8008b054600040eb8008904460089
:101f20000a854e00e0854d00050eb8000a05460002
:101f30008b854e00060eb8008b0546000416b800cf
:101f40000a0546008b854e000516b8008b05460035
:101f5000041eb8008b0546000800be000a01be0042
:101f60004f06be004f05be004f04be000000060035
:101f7000ea874700889fbe008a9fbe0081057800df
:101f80008c9fbe008e1f7800e08f5500010032004c
:101f9000800d7800000578008a0478000905780033
:101fa0003a06fb000c007800a4f90700e00f50008f
:101fb000f9ff3a00d4022000840f560003003a00d3
:101fc0008a04780018c0b300050037000044780088
:101fd000b4022000840f560001003a008a04780001
:101fe0008006eb006000b8000d0578000ecdb30050
:101ff000e4c2b300010037008904e80089027800d8
:102000007003640004003a00994f120002003a0085
:102010000844a000f8ff3700194678000c03fb00c5
:102020000603b100e90f530017003e000814a0009a
:102030008802fb00e98f56000f003200f082620038
:10204000010032000a05e900e4b79f00a200200069
:10205000030020008d06e800890b07000e434600b0
:102060006fb297000683fb000700200000004300ca
:1020700081804b00e0ff3700f0826200deff3a0013
:102080000a05e800dcff370054c6b300844f560051
:10209000040032008006eb0054c4b300844f5600a5
:1020a0002e003a0059427800d5c2b300854f520045
:1020b00002003a000834a00003003700b5c2b300a4
:1020c000854f520001003a008904e80007c3b300bd
:1020d000890278008504780004c3b300394378008e
:1020e000874f5300faff32008603fb008006eb00a7
:1020f0000703b100e98f530015003e008902780004
:1021000084465300154378008d86fb008603fb0050
:102110000703b100e98f53000d003e006a69b90062
:1021200084465300554378008d86fb008603fb00f0
:10213000828646000703b100e98f530004003e0089
:102140006a69b900844653008d86fb00828646008a
:1021500068026400010032008d06ea00e08f55003d
:10216000030032006202640001003200850d780035
:10217000e4fa07006011b8000002be000003be00d0
:10218000e4b79f00d5b79f00f4b79f0087bf9f00bb
:102190009cfa07006fb2970000017800dfb2970049
:1021a0006000b8007fb397008fbb9700e00f51002d
:1021b000600032000a85460032f82f00820f550079
:1021c00003003d0024022000b4dc880059003700e1
:1021d00000082000800f5500070034002402200072
:1021e00061046400b4dc88004d003200000020006f
:1021f00001f82f004f003700e00f55001f003d0091
:102200000a05ea00060037000400be00922f2000f5
:10221000530125006a05550029fa07000002be0097
:10222000e90f5500f8ff3c00060037000400be002f
:1022300002002000031224000a05e90020fa07002a
:102240000002be00e00f5500f8ff3a000403be0094
:10225000020020000308200087bf9f000400be008a
:10226000f4b79f0067fa07007fb397008fbb970012
:10227000e00f500025003d001f003700e00f550023
:1022800007003a00210037000400be00922f200012
:10229000530125006a05550009fb07000002be0036
:1022a000e94f5500f8ff3e00060037000400be006d
:1022b00002002000031224000a05e90000fb0700c9
:1022c0000002be00e00f5500f8ff3a000403be0014
:1022d000f2ff2f00f3f7270087bf9f000400be0026
:1022e000f4b79f0049fa07007fb397008fbb9700b0
:1022f000e00f500005003400610464000b00320060
:1023000000002000010828000a0037006104640072
:102310000100320007f0a2000600be0005003700f1
:102320000000200001f82700020037000000200014
:10233000010820004f0778004f06be004f05be0081
:102340004f04be00af00b1000000060008ff3700d8
:102350008000eb0006ff370006c2b30000027800e1
:1023600004007800b042780086cf5200fbff3200b4
:10237000e9cf5200f9ff3200d6c2b30086cf520037
:1023800003003a000002780016c0b30005003700d1
:102390000043eb00b7c2b30087cf520001003a0000
:1023a000000278000000eb00020037006a00b9006c
:1023b00000804200b402fb000503b100e98f520027
:1023c000faff3600e04f5300010032000000ea003f
:1023d000000006000002780002003700315a780041
:1023e0000201e900e00f5100fcff3a000000060086
:1023f0000002780002003700015a78000201e9006b
:10240000e00f5100fcff3a0000000600b0427800e7
:1024100031c2520002003a00e0cf5200fbff3a0006
:102420000400fb0000000600889fbe000004be0000
:102430000c00370009007800fb07070089007800ce
:102440000001780008007800fe070700e00f500048
:102450000a0032000800e8009900fb00d7000700de
:1024600000047800e00f5400040032000042eb004a
:10247000984f1200efff3a000004eb0008007800cc
:102480004f04be00000006000002eb00ea87470090
:10249000b4dc8800889fbe00820478008a9fbe005a
:1024a0008c9fbe00010678008e1f7800840f5600b6
:1024b00001003200000e780000057800ba4678006e
:1024c0000a0478000d00fb005cf80700e00f5000e4
:1024d000faff3a008d427800d4c2b30084cf520094
:1024e00003003a00b84278001ec0b3000500370070
:1024f00000477800b4c2b30084cf520001003a0014
:10250000b842780004c3b30084cf520012003a00ee
:10251000b8427800e08f540002003200f08f54007f
:102520005c003a0084c7b30084cf5200030032003d
:1025300084c5b30084cf520003003a00b84278004b
:102540000901200053003700e08f540051003a0089
:10255000890020004f0037008046eb00e08f5400d8
:1025600002003a0089467800a9002000614bb900ba
:10257000d6b79f00e7b79f006055b8000503fb0082
:1025800085bf9f0006007800f6b79f0021f807007e
:102590008fba97007fb39700e00f5000050032001c
:1025a000060078002df8070097ccb30007424000e2
:1025b000050037000603b100e90f530020003e007c
:1025c00006cdb30006c242008402fb00898f520090
:1025d0001a003d000402fb00cfa2de005fb19700ad
:1025e000efb19700f4b79f0085bf9f000a00be00bf
:1025f000230a07007fb297008fba970004034000b8
:10260000858348000800e800860f5500878f5d002d
:10261000050036002402200000047800b4dc8800a5
:1026200010c0b30006003700984278000605be00cf
:10263000000478001dc0b300d0ff37000040eb005d
:10264000e0cf560003003200e00f560001003200d8
:10265000080ee900e14f500005003200e04f57003e
:102660000500320060051500e0851d0002003700fe
:102670000085eb008085eb004f0778000a00be0064
:102680004f06be004f05be004f04be00af00b100b4
:10269000000006001dc0b300b4ff37000002eb00cd
:1026a000889fbe00b4dc88008a9fbe008104780049
:1026b0008c9fbe0080057800820678000b067800ab
:1026c0000c0578000a0678003c4478000800fb00fe
:1026d000daf70700e00f5000f9ff3a00d4c2b30068
:1026e000844f54000300320004c2e900844f5400b8
:1026f00002003a000a05e8000100370004447800af
:102700000d017800890078000a0078005eff07005c
:10271000e08f540007003200990f550024003a0062
:102720008b0c780022003700e00f5000e08f58003b
:102730000f003a00b4c2b300844f540004003a00c2
:10274000e00f5000e08f580015003d0008003700f2
:10275000d4c2b300844f540011003a00040020009a
:1027600005002800840f5000858f58000a003600ad
:1027700024022000f0ff2f00f1ff2700b4dc8800c6
:102780006b424200844f540005003a0000002000d4
:10279000010028000200370060001000e0801800ef
:1027a0004f06be004f05be004f04be0000000600ed
:1027b000998f5500dfff3a00dbff37000002eb0086
:1027c000881f78006103b800060478006121b80012
:1027d00006004100e842790081cf52000400320037
:1027e0000402e800e0cf5200f8ff3a000000eb00de
:1027f0004f047800000006000c00fa00889fbe001d
:10280000f4ff270000047800d4bf9f008004eb0091
:1028100088bf9f0099bf9f00a8bf9f00240c200085
:1028200078815700b4bf9f00cfb0970070805700e9
:10283000c40007000fba9700094a78000fba970042
:10284000080052004f04be000080fa00000006009d
:10285000d4c6b3000800fa00889fbe000084fb00c5
:102860008a9fbe00844f50003400360089c4210086
:102870004b062000110009000b84d80072004000b4
:102880004300dd0000804400810578006022b8002c
:102890000600200007fe2300aa0020005001be0011
:1028a0004000be00ff0807000002be001100090042
:1028b0008a85d80080057800e9854500c35ddd0084
:1028c0008b8544000203be0084bf9f0095bf9f001c
:1028d000a6bf9f00b7bf9f003b02be002b03be00f8
:1028e0000fb897009fb897002fb99700bfb997000e
:1028f000ec0807000002be00110009000a84d8009d
:10290000010478004344dd00888444000203be00d3
:1029100084bf9f0095bf9f00a6bf9f00b7bf9f00c9
:102920003902be002903be000fb897009fb8970078
:102930002fb99700bfb997001d003700ea4f50002c
:1029400013003600aa00200089c4210011000900ec
:102950000a84d80001057800690440004355dd0071
:102960004344dd00088444008a8444006022b800a7
:102970000600200007fe23003800be002801be002c
:10298000c80807003902be002903be00080037004e
:1029900084c421004344dd00080442006022b800e2
:1029a0000600200007fe23003800be002801be00fc
:1029b000bc0807004f05be004f04be000080fa00af
:1029c00000000600d4c6b3000800fa00889fbe00cd
:1029d0008a9fbe00e04f500022003d000040ea0008
:1029e0000004fb00844f50000a003400440620001d
:1029f000a9002000110009000404d8008ac42100a5
:102a0000110009008900d800e9004000c308dd007a
:102a100020003700ea4f50000f003400a4002000cf
:102a2000110009000404d80084c42100690040009a
:102a30004300dd0000004200430cdd0008024200bc
:102a40005001be004000be005403be004402be0060
:102a500094080700370037004344dd0084c4210098
:102a6000310037000004fb00844f50002300340085
:102a700044062000a9002000110009000404d80029
:102a80008ab92100110009008900d800e90040003e
:102a9000c308dd00810045008b0920008a854500c0
:102aa0003102be002103be003b00be002b01be0070
:102ab0007c0807000002be00110009000904d800cc
:102ac000010478004344dd00080545000203be0010
:102ad00084bf9f0095bf9f00a6bf9f00b7bf9f0008
:102ae0003a02be002a03be000fb897009fb89700b5
:102af0002fb99700bfb99700d5ff3700ea4f5000b4
:102b000007003400a4002000110009000404d800cc
:102b100084b92100690040004300dd00c5ff370093
:102b20004344dd0084b92100080442003800be009f
:102b30002801be004f05be004f04be000080fa0011
:102b400000000600ef05b000889fbe008a9fbe000f
:102b50008c9fbe00000678008e1f78000007eb00f7
:102b6000e19f9f0082af9f006000b8006011b80035
:102b700080a79f0091a79f00a2a79f00b3a79f00d7
:102b8000d9053700ef98970054c2b3008100e800e0
:102b9000e19f9f00844f500006003a0081027800b8
:102ba0008006eb0007c3b30000c2b300b1c2b3009c
:102bb0000e0037003c0290000404b2000400320012
:102bc0001c027800004a7800040ee8000500370077
:102bd0000000fb008c007800cf050700e10f4000eb
:102be000c10532000e07e800bf0537000503780075
:102bf000d2c2b30035427800824f52000900320041
:102c000005003c00804f520008003200814f520006
:102c10000c003a0007003700874f520009003a00c5
:102c2000060037000d30a000f0ff37000d00a000b7
:102c3000eeff37000d10a000ecff37000d20a000c4
:102c4000eaff3700e2826600010032000d00a100b9
:102c5000e8826600010032000d20a1008402fb0022
:102c60000503b100e98f52000d003e008602780096
:102c70008003eb003502fb006a3bb9000403b1009e
:102c8000860342001502fb00050378000403b1002f
:102c9000e90f5200f7ff360097b79f000a00370090
:102ca0008002eb0095b79f00a5c2b300854f52008c
:102cb00005003a008fab97000603e8004700780054
:102cc00087af9f0090b79f00e4c2b300964f1200f9
:102cd00017003a000de0a00064425200d64f1200e7
:102ce00003003200060278008003eb000900370081
:102cf0000fa997000603e800c201780082af9f0089
:102d0000d3af9f00c7c6b3000d0037006a3bb900c0
:102d10008683420004037800b402fb000503b1007f
:102d2000e98f5200f9ff3600d7af9f00f5ff37005b
:102d30000002eb000dc0a000d4af9f00f1ff3700f0
:102d4000860278003542780005037800874f5200ec
:102d50002d003200e59f9f00c5c6b300854f52008d
:102d600014003c00e8c25200854f5200240032009b
:102d700009003c00ecc25200854f52002e00320088
:102d8000ebc24200854f52009a003200e04f5200e1
:102d90005a053200b800370065c6b300854f5200af
:102da0001f003200e3c24200854f5200b2003a00d9
:102db0001300370035c7b300854f520022003200a0
:102dc00007003c00e4c25200854f52001700320059
:102dd0008542e800854f5200a7003a0016003700f0
:102de00055c7b300854f5200a8003200e3c242002d
:102df000854f5200a0003a00e4579f0010003700b2
:102e0000e4579f00a3003700f08266000401200011
:102e100001003200040028008d067200c8ff370050
:102e2000e4579f000da0a0009a003700e4579f00d0
:102e30000d60a00097003700e4579f000d50a000e0
:102e40000d70a000930037008faa9700e4579f00f1
:102e50004502780085af9f0004047800e00f52001f
:102e600001003a00a8db2100880278000002eb0094
:102e7000010037000402e80065437a00e04f530088
:102e8000fcff3a00840478005fab9700e00f53002a
:102e900003003200890f53000100310086047800de
:102ea0000002eb009fb39700898f530001003600aa
:102eb00009825300e8866600ddaf9f000d007800b0
:102ec000e00f50002c003a008406780004c2b300e2
:102ed00010003700bc0290000504b200040032006c
:102ee0009c027800844a7800050ee800070037004d
:102ef00084bf9f008c0078000002200006050700b8
:102f00000fba9700e10f4000010032000e07e80001
:102f10008d06e900e08f5600eeff3a000082eb00dc
:102f2000150037003c0290000404b2000900320092
:102f3000080278001c037800b4427800054b780042
:102f400004047800060ee800e0cf520008003a00c2
:102f50000a003700080278008c0078003400fb007b
:102f600004047800ec040700e10f40000300320085
:102f70000e07e80001003700840678000902780097
:102f80008404e900e00f5200e6ff3a000d027800e9
:102f9000dfa89700e08f5000d30432008406780049
:102fa00004c2b30010003700bc0290000504b20058
:102fb000040032009c027800844a7800050ee80084
:102fc0000700370084bf9f008c00780000022000bb
:102fd000d10407000fba9700e10f40000100320052
:102fe0000e07e8008d06e900e08f5600eeff3a007c
:102ff000bd0437000fa99700f082660042027800f6
:1030000082af9f0004007800cf80de0001017800cd
:103010008201780090af9f00a1af9f00b2af9f00e8
:10302000c3af9f004800de00480add0000007200c8
:10303000e0579f00e08f520009003200e04f50003f
:1030400007003200e14f400005003200afd2970088
:10305000f0579f00855f9f00290020000300370084
:103060002fd3970019002000f6579f0078f92f0002
:103070000f04440084ff3700e4579f0068f92f00d5
:103080000f044400190020007fff3700e4579f0021
:103090000d0cb3000470200004826600650232004b
:1030a0000400210004826600020032006700200054
:1030b000d7af9f0070826600090032000faa970008
:1030c0004401be004400be0084af9f0090af9f004b
:1030d000a1af9f00b2af9f00c3af9f000a003700af
:1030e0008faa97004500be0085af9f0055060700d8
:1030f0000002be000203be0094af9f00a5af9f0078
:10310000b6af9f00c7af9f006022b8006033b80021
:103110001fa89700afa897003fa99700cfa99700d5
:103120009a050700e00f50000a003d001fa8970015
:10313000afa897003fa99700cfa9970003f0a2007e
:1031400090af9f00a1af9f00b2af9f00c3af9f00a1
:103150003d00b3000002eb001fa89700afa8970046
:103160003fa99700cfa99700d48f9f006022b80095
:103170006033b800e9050700e00f5000340032006a
:10318000a4f92f000f0242001fa89700afa89700d4
:103190003fa99700cfa99700a50607005f88970071
:1031a000a40020000000e9006300b900110009003c
:1031b0000400d800d08f9f00e00f500002003d00b7
:1031c0000000e900d08f9f005f8c97000840ea0064
:1031d000fcfd07001faa9700afaa97003fab97001e
:1031e000cfab9700af0607000002be000203be008f
:1031f00084a79f0095a79f00a6a79f00b7a79f0041
:103200006022b8000600200007ff23005f050700ca
:10321000e00f500002003d000804e9000b003700f9
:103220006022b80006002000470224000fa097008b
:103230009fa097002fa19700bfa1970058050700f6
:10324000e00f5000020035000804e800d88f9f000e
:10325000dfaa9700f88f52000f003c00054078006d
:103260007bfd07000002be000203be001fa89700fe
:10327000afa897003fa99700cfa99700c604070001
:103280000002be000203be0094af9f00a5af9f00e6
:10329000b6af9f00c7af9f005f8c9700e90f540047
:1032a00015003c006022b8006033b8001fa89700ea
:1032b000afa897003fa99700cfa9970097050700ef
:1032c000e00f5000320032001fa89700afa897000f
:1032d0003fa99700cfa99700f9050700e00f50001c
:1032e000e08f5800e00f5900e08f590028003a00a5
:1032f000e10f5400260034000400200005002e00d9
:10330000b6e02200170124000fa097009fa09700ad
:103310002fa19700bfa197001c050700e00f5000e8
:1033200002003d0073045400010037007204540091
:10333000d88f9f002f589700a2fd07000002be0003
:103340000203be001fa89700afa897003fa99700ef
:10335000cfa9970084a79f0095a79f00a6a79f00cd
:10336000b7a79f0013050700d50507000205be009b
:103370000004be006000b8006011b80090af9f006c
:10338000a1af9f00b2af9f00c3af9f0017003700ef
:103390001fa89700afa897003fa99700cfa9970053
:1033a000c70507000205be000004be00f5050700c2
:1033b0000002be000203be001fa89700afa897003e
:1033c0003fa99700cfa99700ab0607000002be00f7
:1033d0000203be0094af9f00a5af9f00b6af9f0051
:1033e000c7af9f000002eb00d48f9f0001d02100e7
:1033f00010c0b300080037003102be003103be0028
:103400000440e10005c8e10006d0e10007d8e10072
:10341000030039000040e800f44f5000f6ff3a0086
:103420009fb297005f8a97005fab970004825200bb
:10343000e0579f00860252000002fb000482520007
:1034400094b79f00e00f5300020032000402e9002d
:1034500094b79f0063826600030032009fb3970019
:103460008703e90097b79f00648266004500320039
:1034700062826600e1826600e00f520011003200b5
:103480003c0290000404b200080032001c037800e3
:10349000b4c2b300e08f52000100320004c2e80061
:1034a000044b7800060ee80015003700b00220003b
:1034b000e08f5200010032000080e8008c007800ac
:1034c0000c003700e08f5200200032003c029000d8
:1034d0000404b200050032009c02780004c2b3006c
:1034e000844a7800050ee800050037008c0078005b
:1034f0000002200088030700e10f400013003200a3
:103500000e07e800110037003c0290000404b200ee
:10351000040032001c027800054a7800040ee8001e
:1035200007003700f5b79f008c00780000032000eb
:1035300079030700ffb29700e10f4000010032005d
:103540000e07e8008904e90006003700c8a79f00bd
:10355000d9a79f00eaa79f00fba79f009fb49700f1
:1035600005c3b300e08f5400e7ff3c0099b79f000c
:103570004fa49700dfa497006fa59700ffa59700c1
:103580006e003700688266001f003a0011003700a5
:103590003c0290000404b200040032001c027800d7
:1035a000054a7800040ee80007003700f5b79f00d1
:1035b0008c0078000002200057030700ffb297003c
:1035c000e10f4000010032000e07e8008904e90025
:1035d00006003700c8a79f00d9a79f00eaa79f0051
:1035e000fba79f009fb4970005c2b300e08f540073
:1035f000e7ff3c0099b79f004fa49700dfa4970016
:103600006fa59700ffa5970062826600e1826600c1
:10361000e00f5200110032003c0290000404b2009e
:10362000080032001c037800b4c2b300e08f5200df
:103630000100320004c2e800044b7800060ee800e6
:103640003d003700b0022000e08f52000100320040
:103650000080e8008c00780034003700e08f5200d2
:10366000360032003c0290000404b2000500320033
:103670009c02780004c2b300844a7800050ee8007a
:103680002d0037008c007800000220002700370052
:103690003c0290008502fb000404b20013003200db
:1036a00082cf2100c32add00850241009c00780002
:1036b0005503be004502be00c1a79f000800be0022
:1036c0000a01be009f060700a4002000050020009c
:1036d0006033b800a20607004fa2970005c3b300ed
:1036e000054a4000040ee8001300370086cf210091
:1036f000c32add00850243000800be000a01be00a7
:103700005503be004502be008e060700a40020003f
:10371000050020006033b800910607008c00780097
:10372000040320000002420004007800fa020700af
:10373000e10f4000010032000e07e8006f529700d1
:103740008442e900e5579f00e04f5200d0ff3a0065
:10375000110037003c0290000404b2000400320063
:103760001c027800084a7800040ee80005003700c3
:103770008c00780000032000e7020700e10f400002
:10378000010032000e07e8005f8a97000402e9009a
:10379000d48f9f000100370008c3b3005f8a9700f1
:1037a000e00f5200ebff3c00dfab9700f28f5300bd
:1037b0000300340024c1b300e4579f000200370027
:1037c0002fd89700e0579f006f529700dfa897000f
:1037d0000403fb0006835000c6a79f00e04f520081
:1037e0000e0032003c0290000404b20005003200da
:1037f0001c027800e5c2b300054a7800040ee80018
:10380000050037008c007800e0022000c2020700ab
:10381000e10f4000010032000e07e8006f509700f2
:1038200068fc07000002be000203be001fa897004c
:10383000afa897003fa99700cfa9970019050700e7
:103840009f040700350037003c0290008502fb0012
:103850000404b2001300320083cf2100c32add002c
:10386000858241001c0178005503be004502be0060
:10387000d2af9f000800be000a01be00310607005b
:10388000a4002000050020006033b80034060700c3
:103890005faa970005c3b300054a4000040ee80084
:1038a0001300370086cf2100c32add0085024300c4
:1038b0000800be000a01be005503be004502be005e
:1038c00020060700a4002000050020006033b80097
:1038d000230607008c007800040320000002420049
:1038e000040078008c020700e10f40000100320064
:1038f0000e07e800ef53970080cf21000702fb007e
:103900004322dd00040240000800be000a01be00a0
:103910005403be004402be00110607006f52970018
:103920000205be000004be008442e900e5579f0086
:10393000e04f5200c4ff3a0011003700bc02900073
:103940000504b200040032009c027800844a78002a
:10395000050ee8000700370084bf9f008c00780048
:10396000000320006c0207000fba9700e10f40002f
:10397000010032000e07e8008904e9000600370064
:10398000cfa49700d0af9f00e1af9f00f2af9f00a0
:1039900083b79f0004c3b300e08f5400e7ff3a00f1
:1039a0005fac9700efac97007fad97008fb59700a5
:1039b000e88666004c0232009fb09700e08f50000e
:1039c000490234000802be000a03be000dc2b30063
:1039d000810478003c0090000004b2000400320032
:1039e0001c0078000d487800000ee8000d0037003c
:1039f00084bf9f00f5b79f00d6b79f00e7b79f0031
:103a00008c00780000022000430207000fba9700e4
:103a1000ffb297005fb39700efb39700e10f40004c
:103a2000010032000e07e8008904e900e9ff3a00ce
:103a30002d0237008d027800050cb2002a003a00f2
:103a4000e08f560005003d000fa997004205be001b
:103a50004204be0082af9f001600370070826600ed
:103a60000e0032000fab97004602be00c4979f00c5
:103a7000d5979f0086af9f00160290004fa2de00f0
:103a8000e4979f00f4979f004f949700df9497006e
:103a90006f959700ff959700060037000fa89700d5
:103aa0004004780080af9f00cfc4de000905780095
:103ab0008a057800e00f5400e08f5c00e00f5d00a5
:103ac000e08f5d0023003d006022b8006033b80045
:103ad0003d00b3000804520089845a000a055b00c7
:103ae0008b855b001b003700e08f560005003d0012
:103af0008fa897004105be004104be0081af9f0022
:103b000014003700f08266000c0032008faa970084
:103b10004501be00a4979f0082979f0093979f0046
:103b2000b4979f0085af9f000f9497009f949700d4
:103b30002f959700bf959700060037008fab970031
:103b40004704780087af9f00090020000a0020008a
:103b50000b0020005fa89700e00f500009003a001a
:103b600011002000d1af9f00e00f5400e08f5c00f7
:103b7000e00f5d00e08f5d00020032000001eb000d
:103b8000d2af9f008d01780004042000030cb20026
:103b900093af9f00848f51002c00320003003c0043
:103ba000e08f5100080032003c003700040820007c
:103bb0009faa9700848f520010003200040c20004e
:103bc000848f520035003a0001d0210010c0b300ac
:103bd0003102be003103be000440e10005c8e1002f
:103be00006d0e10007d8e1002b0039000040e800d2
:103bf000f44f5000f6ff3a002700370010c0b30022
:103c000004012000050020006033b8000440e100fa
:103c100005c8e10006d0e10007d8e1001e00390028
:103c2000410020000402d0008582d2000683d20029
:103c30008783d2008100e900faff3a000040e800e3
:103c4000f04f5000f1ff3a001300370010c0b300ee
:103c500084002000050020006033b8000440e1002b
:103c600005c8e10006d0e10007d8e1000a003900ec
:103c7000320020000402d0008582d2000683d200e8
:103c80008783d2000201e900faff3a000040e80011
:103c9000f54f5000f1ff3a00e0579f00ef519700b9
:103ca000dfaa97000302fb00850f520002003d00cf
:103cb000e5579f00040037005fab9700840f530067
:103cc00001003d00d4af9f009fb39700e08f5300e9
:103cd0000400320063826600020032008703e900bc
:103ce00097b79f0004002400048266000900320098
:103cf0001fb09700dfa89700810f50000300340029
:103d00000100500090b79f00020037000001eb0057
:103d100092b79f00ef5197008002eb000302fb0077
:103d2000c5a79f001fb39700840f53000200340003
:103d300004025300c4a79f0064826600450032005d
:103d4000e282660061826600e08f5200110032005c
:103d5000bc0290000504b200080032009c0278000a
:103d6000b6c2b300e00f52000100320006c3e80003
:103d7000864a7800050ee80015003700b0022000e2
:103d8000e00f5200010032000080e8008c00780053
:103d90000c003700e00f52000e0032003c02900091
:103da0000404b200050032001c02780005c2b30012
:103db000054a7800040ee800050037008c00780002
:103dc0000002200054010700e10f40000100320012
:103dd0000e07e800cfa39700e08f53006300320086
:103de00098b79f00a9b79f00bab79f00cbb79f00b5
:103df00004c3b30087047800bc0290000504b2003d
:103e0000040032009c027800844a7800050ee80025
:103e10000700370084bf9f008c007800000320005b
:103e20003d0107000fba9700e10f4000010032008a
:103e30000e07e8008904e900efff3a00c9a79f00d8
:103e40001fb49700afb497003fb59700cfb5970068
:103e500046003700cfa09700e08f50001e003200d0
:103e6000688266001c003a0098b79f00a9b79f00bf
:103e7000bab79f00cbb79f00cfa4970004c2b3008e
:103e8000bc0290000504b200040032009c027800dd
:103e9000844a7800050ee8000700370084bf9f00c1
:103ea0008c007800000220001b0107000fba970069
:103eb000e10f4000010032000e07e8008904e9002c
:103ec000efff3a00c9a79f001fb49700afb4970057
:103ed0003fb59700cfb59700e28266006182660029
:103ee000e08f520011003200bc0290000504b200c5
:103ef000080032009c027800b6c2b300e00f520006
:103f00000100320006c3e800864a7800050ee8008a
:103f100015003700b0022000e00f5200010032000f
:103f20000080e8008c0078000c003700e00f5200a1
:103f30000e0032003c0290000404b2000500320082
:103f40001c02780005c2b300054a7800040ee800a0
:103f5000050037008c00780000022000ee0007000a
:103f6000e10f4000010032000e07e800dfa89700d3
:103f700085cf21000102e90098b79f00a9b79f00f3
:103f8000bab79f00cbb79f004221dd006323b90081
:103f9000929f9f004322dd00860178008502420047
:103fa000839f9f00f59f9f00708266008d027800be
:103fb000f48f9f000502b200e58f9f00a300370039
:103fc000dfa897001fa997008100e90003042000e3
:103fd000d1af9f00830f51007300320003003c00fb
:103fe000e00f5100080032007e0037000408200076
:103ff0009faa9700848f520056003200040c2000c4
:10400000848f520077003a00e08f56001f003d0079
:104010007f9b97001fb09700afb097003fb197000c
:10402000cfb197003604be002605be000802be00d0
:104030000a03be00430407000802be000a03be00d4
:10404000e0579f000000fb00cf80de0001017800f8
:1040500082017800c1f507001fb29700afb2970048
:104060003fb39700cfb397000002520081825a00fd
:1040700002035b0083835b0094b79f00a5b79f009a
:10408000b6b79f00c7b79f002e003700ff8a970082
:10409000e08f5200220032007f9b97001fb29700f2
:1040a000afb297003604be002605be000400be0075
:1040b00084bf9f00f5b79f000801be0094f507007c
:1040c0000801be00e0579f000000fb00cf80de002b
:1040d0006b0307000fba9700ffb297000001520070
:1040e00081815a000002eb00a29f9f00b39f9f00b6
:1040f000d49f9f008001eb00c39f9f002f989700e3
:10410000bf9897004f999700df99970090b79f004d
:10411000a1b79f00b2b79f00c3b79f000900370047
:10412000ff9897001fb19700110278001100090055
:104130000481d800a4002000110009000480d800e8
:10414000e1579f00ef5197000343b000e3579f00f2
:104150002400370094da2100ef8a9700e08f5200a4
:104160000100320084d921001fb09700afb0970042
:104170003fb19700cfb197001f9b97000603e9005e
:10418000050033008301d1000281d3008180d30078
:104190000080d300f9ff37006f00600064407800b2
:1041a000e0579f000f0037001fb29700afb2970093
:1041b0003fb39700cfb397000f9897000000e90036
:1041c000050033008703d1000683d3008582d30026
:1041d0000482d300f9ff3700674262000443b00055
:1041e000e4579f003c0290000404b2000700320034
:1041f0009c0278006f529700844a7800050ee80010
:10420000e04f520007003a0007003700ef509700d8
:104210000100fb008c0078003f000700e10f400028
:10422000010032000e07e8001f9997008f99970050
:104230007f9a970064015100e381510068025200a7
:10424000929f9f00839f9f00f49f9f00dfaa97008b
:10425000e08f52005aff3a001fb49700afb49700a6
:104260003fb59700cfb59700e88666001e00320084
:104270004fa39700e00f53001b0034000802be005c
:104280000a03be00cfa497000dc2b3003c0090000b
:104290000004b200040032001c0078000d487800d1
:1042a000000ee8000d00370084bf9f00f5b79f00a7
:1042b000d6b79f00e7b79f008c007800000220006f
:1042c000150007000fba9700ffb297005fb3970081
:1042d000efb39700e10f4000010032000e07e80045
:1042e0008904e900e9ff3a00ef9b97001740780046
:1042f000e0579f00e04f500022fa3a000e0078008d
:104300004f0778004f06be004f05be004f04be00a9
:10431000ef05b10000000600889fbe000104780090
:104320008084eb0038029000e20262003b00320021
:1043300004037800980290000620b20002003a00c0
:10434000e08f520035003a000490a000800478000d
:1043500034049800f90fb200e08f520002003a00d6
:10436000a8029000050c7800ea8f540005003a007e
:104370000408b20003003a0088007800d000200052
:10438000e5ff070018029000d8029000850f520048
:104390000b0032000402e80015c0b30014049800ba
:1043a00018027800094a7800040ce80084de210035
:1043b000054a7800ea8f540018003a0005003700db
:1043c00009407800880078002f00070080047800fa
:1043d00012003700380290000410b2000f003200c3
:1043e00018019000a800900048009000a2f007007b
:1043f00018029000840f5000040032003802900030
:104400000403b300340498008084eb000002eb0046
:104410001404980028029000040c78000900780029
:104420004f04be0000000600000278008042eb004e
:10443000b4cf1200fdff3a000080ea000000420005
:10444000000006000b00370030427800e04f5200b9
:10445000030032000201e900b14f520005003200b2
:104460000480fb00954278008582fb000500500027
:104470000000060081027800e00f5100f2ff3a00d0
:1044800002007800000006000200fa00889fbe00cb
:1044900001047800a0ff9f00380290008402780099
:1044a0000504b200020032000000fb0035003700b6
:1044b000e202620005003a000403b300150498000c
:1044c000340498000080eb002e003700d8049000e0
:1044d000e08f540006003a0012002000e6805700ea
:1044e0004800900064f0070019049800230037008a
:1044f000a8029000e08f520008003a00c5de2100bb
:104500000430a00025049800050c780034049800bd
:10451000250020005504980015049800180190000b
:10452000a80090004800900053f007002802900077
:104530008082eb0015049800affa9700054a7800d6
:10454000040ce8002ffa9700ea4f52000b003a00e3
:10455000380290000410b2000800320018019000e8
:10456000a80090004800900043f007000002eb0014
:10457000a802900014049800050c78002ffa970008
:104580000400fb004f04be000080fa00000006009b
:1045900000c0da00000006002800fa00889fbe0074
:1045a0008a9fbe008c9fbe00070678008786690040
:1045b0000c003b00030478008704780008f0a10099
:1045c00009f0a100840f5000858f5800860f590014
:1045d000890f5c00030033000cf0a20001003a00d8
:1045e0000cf0a100fe0007006400e1005f00320053
:1045f000780147006408e100610032006c01470067
:10460000748557003200be001201be003a04be009d
:104610001a05be001e039000be0a900085035300d9
:1046200006003d000004fd008104fd000205fd00c0
:104630008305fd008703ea00050378000df8a30059
:104640000400320060041400e0841c0060051d00ba
:10465000e0851d006022b8007d0320000d38e100d8
:104660008006eb000b0039004433dd00f300b2009c
:104670008301730039003700848272000d027800d4
:10468000e10664008b85d1000a85d3008984d300bc
:104690000884d3008703e900f7ff3b0008004000cf
:1046a000898048000a0149008b81490004003b00d1
:1046b00060001000e080180060011900e08119001e
:1046c0000358a300090032008d82720084827200b8
:1046d000610260008301d1000281d3008180d30098
:1046e0000080d3000603e8001b0037000348a30046
:1046f00017003a000600e000170034000603e90046
:104700000d00a3000000480081804800020149001c
:10471000838149000348a3000f003a000600e0002f
:10472000090034000603e9000000400081804800d1
:10473000020149008381490001003a000003eb00b7
:104740000348a300f5ff32006022b80002003700e2
:1047500084827200618266007500070003f0a10088
:104760000cf0a70003f0a000b1003700640147007f
:104770006408e10002003a000df8a300a9003a0025
:104780003200be001201be00a90037008f1fd10009
:10479000d50207008f87e9000000e0000000060056
:1047a000809feb00d00207008f87e9000000e00047
:1047b000000006002800fa00889fbe008a9fbe0005
:1047c0008c9fbe0003866b00850007006400e1003b
:1047d000440032006408e1004a0032006100e10058
:1047e000460032006108e10049003200ec06470053
:1047f0006000b8003d02be003d03be00f4865700d5
:104800006011b8003d04be003d05be007d032000e0
:104810000b0037000000a0008d06e90013003200f5
:104820000402420085824a0006034b0087834b0046
:104830000000400081804800020149008381490056
:104840000802520089825a000a035b008b835b00d6
:10485000f0ff3b000802420089824a000a034b0035
:104860008b834b008d06e900edff3a0084827200d5
:1048700086827200f707b200878272000100320060
:10488000150020001e0490003e0b9000060354000b
:10489000e63fb0000368a300070032000000a70055
:1048a0000500a0008301d1000281d3008180d300e4
:1048b0000080d3000603e8008301d1000281d30009
:1048c0008180d3000080d3000002eb000482d2007c
:1048d0001700070003f0a1000cf0a70003f0a000f0
:1048e00053003700640247006408e1004d003200c5
:1048f0003400be003401be00f6ff37006108e1005d
:10490000480032006011b8006000b800f1ff3700c5
:1049100003ff270002002000fbff3700801feb0091
:10492000710207008f87e9000000e0000000060028
:104930001800200057002000080453000d003d001f
:104940000600200097fc2f000740e1001e00340005
:1049500084827200610260008301d1000281d30071
:104960008180d3000080d3000804e800f8ff3a00fb
:104970004700200061046000050474000404640022
:104980000d00320061004000e080480060014900f5
:10499000e081490003b8a500070032000603e800e3
:1049a0006538e10004003a008301d1000281d300a0
:1049b0008180d3000080d300f87f20000830e10020
:1049c00003003500080378006000b8006011b800eb
:1049d0004433dd00f300b2008301730000000600e1
:1049e000680447000294be000094be00fc04470027
:1049f0008694be008494be000900780083020700fc
:104a0000080078008102070099007800814f70004b
:104a10000b003b000800be005c0207004f00b10025
:104a200003003700f3ff2700f2ff2f006110b900e9
:104a30004f06be004f05be004f04be000080fa00c6
:104a40000000060081037800e1f007000001be00cd
:104a50006000b8000478a30013003a006220e1006f
:104a600015003e000d0039008301d1000281d30002
:104a70008180d3008301d1000281d3008180d300e3
:104a80008301d1000281d3008180d3000538b000ba
:104a9000c42add00f300b2008381720007f0a70092
:104aa00003f0a00000000600f3ff2700f2ff2f0034
:104ab0006110b900fbff370003ff2700f7ff370045
:104ac0001400fa00889fbe008a9fbe008c9fbe0023
:104ad0000004be000205be00680047000a90be0048
:104ae0000890be00490207000070a7000bf0a1006b
:104af0000bf8a30020003a009e0990000e099000d8
:104b0000fe0090006e0090009e0290003443200052
:104b100084825200c6ff32000a003c00b4fc2f0021
:104b20000428e100140034008301d1000281d30085
:104b30008180d3000080d3008502e800faff3a00ac
:104b4000bbff3700b40020000428e10007003c0050
:104b50000000400081804800020149008381490033
:104b60008502e900faff3a00b1ff37000300280090
:104b700002002000010037006011b8006000b8009a
:104b8000abff3700889fbe000082700004027100f6
:104b9000048271002400320036432000c50020004a
:104ba0008383cf000a0039000541b1008283cf0022
:104bb000070039000541b1008183cf0004003900ae
:104bc0000541b1008083cf00010039000541b100eb
:104bd00085c353006022b800120032000a003b0077
:104be00084827200610260008301d1000281d300df
:104bf0008180d3000080d3000603e8008743e800eb
:104c0000f7ff3a00070037000000400081804800ad
:104c100002014900838149000603e9008743e90056
:104c2000f9ff3a0042ff07004f04be0000000600f3
:104c30001400fa00889fbe008a9fbe008c9fbe00b1
:104c4000040678000004be000205be0068004700ac
:104c50000a90be000890be00ec0107006200e1006f
:104c60000800be000a01be00040020000b003a004c
:104c70001e029000e43fb1006e009000fe00900024
:104c80000e0990009e099000f300b20005fe23007b
:104c9000858171000bf0a70003f0a000040e7800de
:104ca00063ff37002800fa00889fbe008a9fbe007d
:104cb0008c9fbe0003866b0049ff07000028a300fd
:104cc00064003a000128a30067003a000008a3002e
:104cd00062003a000108a30065003a001e0090003f
:104ce000be08900081064000ed3fb100f4805700ff
:104cf000ee019000111ab8008e099000311bb80027
:104d00009e099000311cb800511db800f485570071
:104d100046000700fe0190003a0007008b85e8007e
:104d20003e0007008e09900040000700ee01900051
:104d3000340007008b85e800380007008e099000da
:104d4000400007009e0990001b18b800890440002d
:104d50000a854800fe019000340007008b85e800ba
:104d600038000700ee019000300007008e09900027
:104d70001b18b800890440000a8548000a98a3005f
:104d800008003a000402420085824a0006034b00f4
:104d900087834b0008044c0089844c000a054d00b1
:104da0008d06e90084827200850273004c3add00b2
:104db000850272000100320015002000443ade0036
:104dc0001400b2004538de00cb45dd000b0070005a
:104dd000c540de00cb4ddd008b8070004549de0014
:104de000cb55dd000b017100c551de000d037800cd
:104df000cffe070003f0a1000cf0a70003f0a00015
:104e00000bff37001b18b8008502400006834800de
:104e1000e0834b0060044c00070037001b18b8000b
:104e20000603400087834800faff37001b18b800cc
:104e30008703400008844800e0844c0060054d0072
:104e4000000006001b18b8000804400089844800d0
:104e5000faff37000108a300f2fe3a005800be0036
:104e60005801be00e3ff37000008a300edfe3a0042
:104e700009047800f9ff370007f0a200c6fd3700eb
:104e8000020ab900001bb9000200b800810042000c
:104e90008100430000000600889fbe008a9fbe007c
:104ea0003004be002005be000404440085844c008c
:104eb00006054d0087854d000898be000a90be008b
:104ec0000440e10005c8e10006d0e10007d8e10098
:104ed00002003100680040001008e8004f05be00e5
:104ee0004f04be00000006001000fa00889fbe00bc
:104ef0008a9fbe00110020000605be000404be000b
:104f00003002be002003be00c4b79f00d5b79f008b
:104f1000e6b79f00f7b79f000802520089825a0047
:104f20000a035b008b835b0084bf9f0095bf9f00db
:104f3000a6bf9f00b7bf9f000498be000698be00a2
:104f40004fb29700dfb297006fb39700ffb397009f
:104f50000820e10009a8e1000ab0e1000bb8e10077
:104f6000010039008000eb004f05be0010881000e2
:104f70004f04be000080fa00000006001400fa0092
:104f8000889fbe008a9fbe008c9fbe000006eb007b
:104f90003e000700ccb79f00bcb79f00acb79f0096
:104fa0009cb79f008cb79f000605be000404be009e
:104fb0000d0420004fb39700bfb297008603430053
:104fc0002fb29700e00f530004003d003d000700a2
:104fd0000f004000b0ff0700030037003900070052
:104fe0000f004000c0ff0700cfb2970095bf9f00a1
:104ff000e08f5200090035002b000700140020004c
:10500000050020006033b80000007200818072004b
:1050100002017300838173001c0007000c06e80086
:105020008d0f5600e3ff3a001fba9700e00f5200c1
:1050300005003d000802be000a03be0000fe2f006e
:105040000f00400094ff07004faa9700e00f5200a6
:1050500008003a000fb497009fb497002fb597004f
:10506000bfb59700d8b79f00e9b79f00fab79f0078
:105070008bbf9f000c0007004f06be004f05be000f
:105080004f04be000080fa00000006000100070087
:105090000000060090b79f00a1b79f00b2b79f0025
:1050a000c3b79f00000006000100070000000600d3
:1050b0001fb09700afb097003fb19700cfb19700f6
:1050c000000006004f2bde00f9ff07008683730007
:1050d000858242004f23de00a7b79f0086827200c0
:1050e0000402420095b79f00ffaa97004f2bde00f5
:1050f000858242000602720084b79f006faa970063
:105100004f23de000402420086827200f5af9f004a
:105110004f18de0000027200e5ff0700e4af9f00b9
:10512000000040008180480002014900838149005d
:105130000802be000a03be00d6ff070000fe2f00d3
:1051400000000600881f780018002000881f7800e3
:105150008aff07008f87e9004f04780000000600ef
:10516000801feb0085ff07008f87e9000000060025
:10517000889fbe008a9fbe00e00f5000e08f58005d
:10518000e00f5900e08f59000c003d006044b8006a
:105190006055b8000000540081805c0002015d0091
:1051a00083815d00180020001500070008003d0005
:1051b000180007000004eb00050037000004eb00b6
:1051c0000f00070002003d00120007001800200039
:1051d000dcff0700e00f5400060032006022b80038
:1051e0006033b8000000520081805a0002015b0069
:1051f00083815b004f05be004f04be000000060027
:10520000e00f5200e08f5a00e00f5b00e08f5b0080
:10521000000006006044b8006055b8000402540065
:1052200085825c0006035d0087835d000000060048
:10523000889fbe008a9fbe008c1f7800e00f500040
:10524000e08f5800e00f5900e08f59000d003d003d
:105250006044b8006055b8001c00200000005400f5
:1052600081805c0002015d0083815d000820e10017
:1052700009a8e1000ab0e1000bb8e1000d003d0013
:10528000080037000006eb00e00f5200e08f5a00e4
:10529000e00f5b00e08f5b0006003d006044b8005b
:1052a0006055b8000402540085825c0006035d006e
:1052b00087835d00aaff0700e00f5600060032005a
:1052c0006022b8006033b8000000520081805a00ac
:1052d00002015b0083815b004f0678004f05be0032
:1052e0004f04be0000000600889fbe008a9fbe00db
:1052f0008c9fbe000404be000605be00809fbe0059
:10530000829fbe002f000700040678000800be0040
:105310000a01be002b000700840678004f03be0080
:105320004f02be008d4f76007fb097001300330010
:10533000f0ff2f008b8f6b0006003b000d06660010
:105340000c00a7000a00370007f0a600100020009c
:105350000a003700880f5200898f5a008a0f5b00bd
:105360008b8f5b00030039001000200001003e001d
:105370000000200007f0a7000000ea004f06be0072
:105380004f05be004f04be0000000600e48240004e
:105390001078a30007003200640240001178a300d7
:1053a0003400be001401be00040032000330a70028
:1053b000000006003500be001501be000330a0004d
:1053c0000000060005ff270005826100070032008b
:1053d0000428e10001003200240005000600070057
:1053e00001003a004400050004080500020007001f
:1053f000f9ff3a00140005006f826100810270001d
:1054000085027100850272000000060080007800ad
:105410005002be005003be004439de00f700b20067
:10542000f37f200003016100090032000218e1004f
:1054300016003a00850172008301730083817300b6
:105440000008200015003a0040002000130037003b
:1054500085017200830173008381730005003a00a7
:1054600004a8be0006a8be00100020000b003700f4
:105470000201e9000402420085824a0006034b0053
:1054800087834b000748a300f9ff32000740a000c4
:1054900004a8be0006a8be002000200080009800de
:0854a0009200980000000600d4
:020000040000fa
:1054a800ff8300008589000091a10000a191000000
:1054b8008985000083ff0000000000000000000054
:1054c8000000000000000000065f00000600000069
:1054d800000700000300000007030000002400008c
:1054e8007e2400007e240000002400002b6a0000b7
:1054f800120000000063000013080000646300004d
:10550800003600004956000020500000000000004e
:105518000703000000000000000000003e410000fa
:105528000000000000000000413e000000000000f4
:10553800000800003e1c00003e08000000080000b3
:10554800083e00000808000000000000e0600000bd
:10555800000000000008000008080000080800001b
:105568000000000060600000000000000020000053
:105578001008000004020000003e0000514900002d
:10558800453e000000000000427f0000400000008f
:105598000062000051490000494600000022000056
:1055a80049490000493600000018000014120000a4
:1055b8007f100000002f0000494900004931000019
:1055c800003c00004a49000049300000000100008a
:1055d8007109000005030000003600004949000079
:1055e800493600000006000049490000291e000055
:1055f800000000006c6c00000000000000000000cb
:10560800ec6c0000000000000008000014220000fc
:10561800410000000024000024240000242400008d
:1056280000000000412200001408000000020000f1
:105638000159000009060000003e0000415d00001d
:10564800551e0000007e000011110000117e0000b0
:10565800007f00004949000049360000003e000074
:105668004141000041220000007f0000414100004c
:10567800413e0000007f0000494900004941000008
:10568800007f00000909000009010000003e000039
:1056980041490000497a0000007f00000808000026
:1056a800087f000000000000417f0000410000006a
:1056b8000030000040400000403f0000007f000034
:1056c8000814000022410000007f00004040000054
:1056d80040400000007f000002040000027f00003c
:1056e800007f000002040000087f0000003e000068
:1056f80041410000413e0000007f00000909000010
:1057080009060000003e000041510000215e000033
:10571800007f00000909000019660000002600004b
:10572800494900004932000000010000017f0000e3
:1057380001010000003f000040400000403f000021
:10574800001f000020400000201f0000003f000054
:10575800403c0000403f00000063000014080000c7
:10576800146300000007000008700000080700002c
:1057780000710000494500004300000000000000df
:105788007f41000041000000000200000408000002
:105798001020000000000000414100007f000000d0
:1057a80000040000020100000204000080800000e4
:1057b80080800000808000000000000003070000d7
:1057c800000000000020000054540000547800003d
:1057d800007f000044440000443800000038000006
:1057e80044440000442800000038000044440000fd
:1057f800447f0000003800005454000054080000a2
:10580800000800007e0900000900000000180000e0
:10581800a4a40000a47c0000007f00000404000091
:105828007800000000000000007d0000400000003b
:1058380000400000808400007d000000007f000020
:10584800102800004400000000000000007f000055
:1058580040000000007c00000418000004780000ec
:10586800007c0000040400007800000000380000fc
:10587800444400004438000000fc00004444000098
:1058880044380000003800004444000044fc000094
:1058980000440000784400000408000000080000ec
:1058a8005454000054200000000400003e4400004e
:1058b80024000000003c0000402000007c000000a4
:1058c800001c000020400000201c0000003c0000dc
:1058d80060300000603c0000006c00001010000008
:1058e8006c000000009c0000a06000003c0000006c
:1058f80000640000545400004c0000000008000040
:105908003e4100004100000000410000413e00000f
:105918000800000000000000007700000000000000
:10592800000000000000000000000000000000006f
:10593800000000000000000000000000000000005f
:10594800000000000000000000000000000000004f
:1059580000000000000000007cff0000ff7c000049
:10596800000000000000000000000000000000002f
:1059780000330000330000000000000000000000b9
:1059880000000000003c00003c000000003c00005b
:105998003c000000000000000000000000000000c3
:1059a80000000000000000000000000000000000ef
:1059b8000000000010900000f07e00001e90000023
:1059c800f07e00001e100000000200001e1f0000f4
:1059d800030200001e1f0000030200000000000078
:1059e8000000000078fc0000ccff0000ffcc0000a5
:1059f800cc8800000000000000000000040c00003b
:105a08000c3f00003f0c00000f07000000000000e2
:105a180000000000383800003800000080c0000096
:105a2800e0700000381c000000300000381c000046
:105a38000e0700000301000038380000380000009d
:105a48000000000000b80000fcc60000e23e0000b4
:105a58001c00000000000000000000001f3f0000c4
:105a680031210000371e00001c3600002200000013
:105a78000000000000000000273f00001f00000099
:105a8800000000000000000000000000000000000e
:105a980000000000000000000000000000000000fe
:105aa8000000000000f00000fcfe000007010000fc
:105ab80001000000000000000000000000030000da
