:020000040000fa
:080000000002040000000000f2
:020000040000fa
:10000800d2020000d6020000dc020000e20200007a
:10001800e8020000d2020000d2020000d202000072
:10002800d2020000d2020000d2020000d202000078
:10003800d2020000d2020000d20200005e6400007a
:10004800265c0000d2020000d2020000124c000020
:100058000e4d0000d2020000d2020000d2020000c1
:10006800d2020000d2020000d2020000d202000038
:10007800d2020000d2020000d2020000d202000028
:10008800d2020000d2020000d2020000d202000018
:10009800d2020000585d0000d2020000d202000027
:1000a800d2020000d2020000d2020000d2020000f8
:1000b800d2020000d2020000d2020000d2020000e8
:1000c800d2020000d2020000d2020000d2020000d8
:1000d800d2020000d2020000d2020000d2020000c8
:1000e800d20200004261000048610000d202000014
:1000f800d2020000d2020000d2020000d2020000a8
:10010800d2020000d2020000d2020000d202000097
:10011800d2020000d2020000d2020000d202000087
:10012800d2020000544d0000d2020000d2020000aa
:10013800d2020000d2020000d2020000d202000067
:10014800d2020000d2020000d2020000d202000057
:10015800d2020000d2020000d2020000d202000047
:10016800d2020000d2020000d2020000d202000037
:10017800d2020000d2020000d2020000d202000027
:10018800d2020000d2020000d2020000d202000017
:10019800d2020000d2020000d2020000d202000007
:1001a800d2020000d2020000d2020000d2020000f7
:1001b800d2020000d2020000d2020000d2020000e7
:1001c800d2020000d2020000d2020000d2020000d7
:1001d800d2020000d2020000d2020000d2020000c7
:1001e800d2020000d2020000d2020000d2020000b7
:0801f800d2020000d202000057
:020000040000fa
:10020800d2020000ee020000f4020000fa02000030
:1002180000030000d2020000d2020000d202000057
:10022800d2020000d2020000d2020000d202000076
:10023800d2020000d2020000d20200005e64000078
:10024800265c0000d2020000d2020000124c00001e
:100258000e4d0000d2020000d2020000d2020000bf
:10026800d2020000d2020000d2020000d202000036
:10027800d2020000d2020000d2020000d202000026
:10028800d2020000d2020000d2020000d202000016
:10029800d2020000585d0000d2020000d202000025
:1002a800d2020000d2020000d2020000d2020000f6
:1002b800d2020000d2020000d2020000d2020000e6
:1002c800d2020000d2020000d2020000d2020000d6
:1002d800d2020000d2020000d2020000d2020000c6
:1002e800d20200004261000048610000d202000012
:1002f800d2020000d2020000d2020000d2020000a6
:10030800d2020000d2020000d2020000d202000095
:10031800d2020000d2020000d2020000d202000085
:10032800d2020000544d0000d2020000d2020000a8
:10033800d2020000d2020000d2020000d202000065
:10034800d2020000d2020000d2020000d202000055
:10035800d2020000d2020000d2020000d202000045
:10036800d2020000d2020000d2020000d202000035
:10037800d2020000d2020000d2020000d202000025
:10038800d2020000d2020000d2020000d202000015
:10039800d2020000d2020000d2020000d202000005
:1003a800d2020000d2020000d2020000d2020000f5
:1003b800d2020000d2020000d2020000d2020000e5
:1003c800d2020000d2020000d2020000d2020000d5
:1003d800d2020000d2020000d2020000d2020000c5
:1003e800d2020000d2020000d2020000d2020000b5
:0803f800d2020000d202000055
:020000040000fa
:100400006f9720000e7f22000e0188000000000080
:10041000000020000000e000020032000001200087
:10042000200288000c000700602d2600010020003b
:100430000f000700000020000000e0000200320072
:100440000000020000000000dc5d0200000000006f
:100450000040da000000fe00607c21000000e000a7
:1004600002003200002020009001880000000600f9
:10047000a1028800800078000000eb001a0037001d
:10048000e280400054a0b4009101ba00e280400034
:1004900054a0b4009102ba00e280400054a0b4001d
:1004a0000002eb00472bde00f507b200a601880032
:1004b000602ce10008003a000049eb000201e8006e
:1004c000020039003420ec0002f0a0008301e900b2
:1004d000f9ff3e00040037006128e100010032000e
:1004e0000082eb00040007001101ba000200e000e6
:1004f000e3ff3a000000060004d0a300e20f490029
:100500001c003900810278003549ba000201e80078
:10051000020039003420ec0002f0a0008301e90061
:100520000f0032002549ba000201e800020039003c
:100530003420ec0002f0a0008301e9000800320042
:100540000400e0000600320015c9ba000201e8000c
:10055000020039003420ec0002f0a0008301e90021
:100560008180e80054a0b4000300e000e2ff3a00fc
:10057000000006009102ba00055978008301e900e5
:10058000f7ff3200c82ade00055978008301e90030
:10059000f3ff32000400e000f1ff320011d9ba008d
:1005a000eeff37000000fe00004006008020a9009a
:1005b0000000fe00004006008060a9000000fe0070
:1005c000004006008040a9000000fe000040060038
:1005d0008080a9000000fe00004006008020a900e5
:1005e0000000fe00004006008060a9000000fe0040
:1005f000004006008040a9000000fe000040060008
:100600008080a9000000fe00004006000a00fa00f9
:10061000e20f500022003e00a44b8000e10f520088
:1006200006003200e7512000a6512000845120002e
:1006300065512000e08f530004003a0087502000ed
:1006400046502000245020000550200000002800c3
:100650001500600003003a00800b780007002800b6
:10066000958a7300054020009482620001003a00e0
:1006700014a0a000820278000600370094037800de
:100680000710b200fdff3200b103fb00070b78003a
:100690008502e900e08f5200f8ff3a0008003700b9
:1006a00034002000c0bf9f00e2bf9f00b4bf9f0086
:1006b000d1bf9f006a8057006d0907006fb997008e
:1006c000020078000080fa000000060003f0a2009b
:1006d000889fbe008a9fbe008c1f7800170107000c
:1006e0001e0133006450e1004f0032006420e1003d
:1006f0005200320003826c0007003b000905d00065
:100700000306d000820f54000c065d000200390081
:1007100002003200890178000306780085825500c6
:1007200004003d000003fd008103fd008502ea0096
:100730008b854200840f720002003b0060001000b5
:10074000e08018006011b8000005eb007a28e10095
:100750000a00390006007800c75ddd00f707b20027
:10076000878075002d003700828171000a017800b2
:10077000610560008180d1000080d3008502e9001e
:10078000f9ff3b00060440008784480002003b005c
:1007900060041400e0841c000988a30007003200f4
:1007a0008a81710082817100610164008904d10035
:1007b0000884d3008b05e800170037000978a300f0
:1007c00013003a000b00e000130034008b05e90031
:1007d0000804440089844c000a4474000978a3008a
:1007e0000d003a000b00e000070034008b05e90023
:1007f0000804440089844c0001003a000b002000ea
:100800000978a300f7ff32000001eb000200370077
:10081000828171000a0178008d0007000cf0a700aa
:1008200001f0a000d60037006420e10002003a0089
:10083000838f6c00d60033000801be000200be00aa
:10084000cf0037000081eb00fa013700889fbe001f
:100850008a9fbe008c1f7800b8000700bf003300dd
:1008600003866c006450e1002e0032006420e10039
:10087000330032006150e1002f0032006120e100be
:100880003100320085855500eb07b00009002000db
:1008900008042000050037000804440089844c0047
:1008a0000a0031000603430087834b000001530018
:1008b00081815b00f8ff33000203be000800a00046
:1008c0000804440089844c00f6ff3900c639dd0075
:1008d0008301730001003200130020008904d1005d
:1008e0000884d3000998a300050032000800a7007f
:1008f0000300a0008904d1000884d3008b05e80020
:100900008904d1000884d3000001eb000281d200e9
:100910004f00070001f0a1000cf0a70001f0a000bb
:10092000970037006420e100990032000801be0002
:100930000200be00f7ff37006120e10094003200a2
:100940006000b800f3ff37000000200001f8270026
:10095000f0ff3700839f68000100e00002003d00c7
:1009600060001000e08018000300e00002003d007d
:1009700060011100e0811900ab0207004f00e000a8
:1009800002003b0060001000e0801800000006003c
:10099000140020004d033700f4ff2f004b033700f5
:1009a0000001be00500007000470a70003f0a10082
:1009b0006509b100160032000d0035006828e1001d
:1009c00006003500f0ff2f00f1ff27000300e000d4
:1009d00013003b000100280000000500000040005b
:1009e000818048008502e900fcff3a0008003700da
:1009f000f88f420002003c008000eb000000050080
:100a00008100d1000080d3008502e800fcff3a009d
:100a10000300e00002003b0060001000e0801800ce
:100a2000000006004f89de00820178004203370093
:100a30000001eb00fe02070004003200020020006b
:100a400003f8230001f0a70020ff070000000600c4
:100a500081002000618055000b003d000b0020004c
:100a600061fe2f000100e1001d0034008281710051
:100a7000610164008904d1000884d3000000e8000b
:100a8000faff3a007100200061006400030070006a
:100a9000020060000900320061044400e0844c0060
:100aa0000988a500050032008b05e8006808e10010
:100ab00002003a008904d1000884d300f20f20001c
:100ac0000258e10005003d00c75ddd00f907b200f6
:100ad0008980750008007800000006000bf82700e8
:100ae0008b00780000000500c70ade00f107b200a5
:100af000f50fb20008003200e1cf420002003200e0
:100b00000170a00024000500810f70000100320078
:100b10000408050044000500810f700002003a003f
:100b2000140005008502e9000000400081c0480073
:100b3000fcff3b000170a000240005000004be0083
:100b4000e9ff07000003be000405be000200be006e
:100b5000e5ff0700844f7500000006000200be009c
:100b60006450e100050036006420e1000200360018
:100b70000968a30001003a000800be000160a0005f
:100b80004f0678004f05be004f04be00000006006f
:100b9000f0ff2f00f1ff2700f9ff3700811f7800d9
:100ba0000100e00002003d0060001000e08018003d
:100bb0000300e00002003d0060011100e081190027
:100bc000290207004f00e00002003b006000100017
:100bd000e080180000000600889fbe008a9fbe00cb
:100be0008c1f7800d5ff0700dcff330003866c0004
:100bf0006450e100240032006420e100270032004c
:100c00006150e100220032006120e1002100320049
:100c10008b854200eb07b1000134b800003ab80000
:100c20000804420089844a00013ab8000030b80044
:100c30008880400009014a000400330000004000a1
:100c400081804800020149008b05e900c909dd00e7
:100c5000830170000100320013002000c814de0080
:100c60004814dd004709de001200b200c808de00ab
:100c70000884700076ff070001f0a1000cf0a700c7
:100c800001f0a000beff37006120e100c0ff32008c
:100c90000801be000200be00f7ff37006150e1000e
:100ca000fcff3a00baff37000c00fa00889fbe0034
:100cb0008a9fbe008c9fbe00a0ff07000206be00f8
:100cc000840578000200be000200200058020700e0
:100cd00005003a008b02b300120020005402070006
:100ce00001003a00f8856d000c01be00c600070047
:100cf0000800be009b0032000b08a3009e003a00d3
:100d00000df0a7000be0a00009f0a7000bf0a00079
:100d100009f0a1000801be00bb0007000bf0a6000f
:100d20009500320001003c000bd0a0008acf750076
:100d3000b20033006000b8006250e1009900390051
:100d4000a1003e000b28a300a2003a000bf8a3006c
:100d5000060032000b58a300a70032000801be00b5
:100d6000a90007000800be00940032000800be0081
:100d7000c00107000004be00050578000bf0a700c5
:100d80000b30a6000bf0a1005b079800324f20004b
:100d900053f32300fefe070005003d000800be00df
:100da00012002000f40207000004be000a05e9005a
:100db0004a0798006150b9001aff0700008fbe0073
:100dc0000c01be0084ff0700f5fe07003007980005
:100dd0000100e00002003d0060001000e08018000b
:100de000f2ff2700820f5000e08f580064003e00a1
:100df0000c00be00eafe070020079800f207200062
:100e0000820f5000e08f580005003c0012f82f00c0
:100e1000f3ff2f00820f5000838f580009003d0020
:100e20000a00e0000300320001003c000201ea0079
:100e3000020578006000b800200798003a07980083
:100e4000190037003e0090006100b900f5fe070070
:100e5000809fbe000c00be004109dd004811de008d
:100e60007208b100f20107000005be001e01be00bd
:100e700059ff07004f01be0014fe0700809fbe000f
:100e80000c00be000a01be0010fe07001e01be00dd
:100e900051ff07004f01be000dfe07008221270011
:100ea00013f323004cff07000005be002e00900046
:100eb0006100b900dbfe070001f0a2000c01be00da
:100ec00003fe07000006be000800be00cc020700bb
:100ed0000c01be0040ff07000a01be00fcfd070038
:100ee000809fbe004a0007002e0590000af0a70070
:100ef0000a05ea00050037000800be000801be0030
:100f000035ff07000004be000c00be000801be0053
:100f10000a00a70030ff07000006be000a05d10046
:100f2000f5ff3a005e01900002e0a60003003700e2
:100f30000001be003600070044fe07000004be00aa
:100f40004f00be00580107000801be0022ff070045
:100f50003e01900088020700de0590000bf0a7001c
:100f600001f0a2004f06be004f05be004f04be00b8
:100f70000080fa000000060025000700f9ff370096
:100f8000270007006000b8000bd0a7000bc0a0002e
:100f90000be0a7000bc0a2000bc0a70001f82700c0
:100fa000f0ff37000df8a300020032001e0007001a
:100fb000190007000bf8a300eaff32000b30a7006e
:100fc00001f0a200e7ff37000df8a300f9ff3a0097
:100fd000f7ff37000801be000b000700e6ff3200f4
:100fe00001003c000df0a2006000b8000df0a70069
:100ff00009000700dbff37000b000700f1ff2700a7
:10100000f0ff2f00d7ff37000100070060fe370018
:1010100001f823000000050001f82700000005008a
:10102000200220000100370010022000e043880069
:1010300000000600889fbe008a9fbe008c9fbe00f5
:10104000820578000004be00a7fe07000800be006d
:101050006420e1000700390002003a00f1ff270098
:10106000f0ff2f000160a00012022000e243880080
:10107000550037006120e10003003a000b00a70093
:1010800001f823005000370001f0a1000200210008
:10109000936424003efe07000800be0004003500f3
:1010a000b2fd2000930c2400e20107000004be0002
:1010b0000005eb000b00a6004f0dde0001f0a100c3
:1010c0000004be0032982f0023ea2300c2fe07006e
:1010d0000001eb0003f023000b00a70003f823003e
:1010e0007bfd07002efe07000000a7000a00a200fb
:1010f0004cfe07000b00e00003003200020020005d
:1011000003f0230071fd070001f0a2000006be00fd
:101110000200200093042400affe07000801be0077
:101120006bfd0700809fbe000c00be0022a22a00bb
:10113000d3a72300a8fe07004f01be0064fd0700ef
:101140000004be0001f0a10002002000039823006b
:101150000ffe07000800be00190035000001be00a8
:101160009dfe07000006be00b2c52900e362230011
:1011700099fe070022222b00f3942b0054fd070058
:101180000c01be0094fe0700e273280083c0230018
:101190004ffd07000c01be008ffe070042aa2a0087
:1011a000a3e22b004afd07000c01be008afe0700e7
:1011b0000801be0088fe07000801be0044fd0700cc
:1011c0000a00a70001f0a2004f06be004f05be00b6
:1011d0004f04be00000006000001eb0095ff370041
:1011e000889fbe008a9fbe008c1f78000004be004e
:1011f0003dfe07000478a30026003a006120e100cc
:101200002500320009f8a30025003a006420e1001f
:1012100021003200f507b1000508a30002003200ea
:1012200000004000818048006044b80003102000a6
:1012300002002000000040008180480008054400b2
:1012400089854c000a0541008b8549000a0550003c
:101250008b855800030033000a00be0002047400ae
:10126000838474008301d1000281d300830f710055
:10127000f0ff3a008904d1000884d30060014900de
:1012800082017800c1adde00fb07b000f0fd070071
:101290003bfe37000960a0000800be0038fe3700a2
:1012a00012022000e2438800f0ff2f00f1ff270028
:1012b00033fe3700889fbe008a9fbe000004be0038
:1012c00009fe07000800be006420e10007003900a5
:1012d00002003a00f1ff2700f0ff2f000160a0009c
:1012e00012022000e24388004c00370001f0a10008
:1012f00002802000935c2400a5fd07000800be00ca
:1013000004003500b2fd20009304240049010700c9
:101310000004be0032982f0023f223002efe0700a7
:101320000200200003f0230001f0a70003f0a0005a
:10133000e7fc07009afd0700801f7800b9fd070051
:1013400001f0a2000005be000200200093fc230073
:1013500021fe07000801be00ddfc0700809fbe00e3
:101360000a00be0022a22a00d39f23001afe070013
:101370004f01be00d6fc07000004be0001f0a10032
:10138000020020000398230083fd070003003d00b6
:101390000000200001f82300180037000800be00fc
:1013a0000001be000cfe07000005be00823b2300ca
:1013b00043dc2b0008fe07000801be0006fe070004
:1013c0000801be00c2fc07000004be000a00be0007
:1013d00052372300f3c12300fffd0700f27a2b00f0
:1013e000b3ed2b00bafc07000a01be00fafd0700ae
:1013f0000200200003f82300b5fc07004f00a60000
:10140000030037000801be0003f0a200020037000d
:101410000001be000800be000cfd07004f05be0025
:101420004f04be00000006006022b8000602200043
:101430000000d0008180d2000482d2008582d200d8
:101440000000a0000202520083825a000300310013
:101450000202420083824a000000a1000603e90064
:10146000f3ff3a0000000600efff07000400be0093
:10147000000006000003be009bfd07006220e100a3
:10148000020032000600be0005000500e507b100bd
:10149000f107b20004f023008480700007f0a70079
:1014a00001f0a00024000500889fbe008a9fbe00b6
:1014b0008c9fbe000004be008bfd07000800be002c
:1014c0006420e10048003e005500320072212700f0
:1014d000132b240030fd070047003c000800be002d
:1014e000c2ec2800e32c2c0029fd07004700350042
:1014f0000800be0001f0a100020020000338230014
:1015000023fd0700430035000800be00b2a32a00f7
:1015100083fb2300b0fd07000200200003f023003e
:1015200001f0a70003f0a00069fc07001cfd070004
:101530000005be003bfd070001f0a2000006be0052
:101540000200280013f32300a3fd07000801be00da
:101550005ffc0700809fbe000c00be003208280020
:10156000e3952b009cfd07004f01be0058fc0700cf
:101570000006be000001be0097fd0700809fbe0070
:101580004241250083b8230093fd0700020020009c
:1015900003e823004efc07000c01be008efd07008f
:1015a0000006be004f00be00f2f92b00c3d423009a
:1015b00089fd07000200200003f0230044fc07001f
:1015c0000c01be0041fc07000001be000c00be0083
:1015d0009efc07000200200003f023003cfc0700f3
:1015e00061014500e40007004f06be004f05be0044
:1015f0004f04be000000060001f827000000200094
:1016000022022000e2438800f7ff37006000b800a4
:10161000fbff370001f8230000002000f2ff370035
:1016200009f8a300f0ff32006000b800eeff3700b9
:10163000889fbe008a9fbe000003be002afd0700ef
:101640008505780082815200020020006220e100be
:1016500004003a00f307b100040035007718e100f8
:10166000040035000600be00140037006000b8001a
:101670000f003700f50f2000faff2f008502d10080
:101680000a85d3008301e900fcff3b0081846200ee
:1016900000046500890f7400f2ff32008582ea00c1
:1016a0000a85ea008184620000046500e8fc070006
:1016b00007f0a70001f0a0000081eb000200e000ad
:1016c0004f05be004f04be0000000600889fbe000c
:1016d0008a9fbe00841f780018fd07004f00780025
:1016e00011003300f0ff2f00838f6c0006003b00d9
:1016f000040565000a00a7000800370009f0a600ed
:101700001000200008003700820f5400838f5c0017
:10171000030039001000200001003e0000002000fe
:1017200009f0a7000000ea004f05be004f04be000c
:101730000000e00000000600881f78000304780025
:101740000300e00007003d0060001000e08018008a
:1017500060011900e081190002003b0001f02d003a
:10176000030037000400070008f0a70001f0a00004
:101770004f04780000000600889fbe008a9fbe00cc
:1017800000827000040271000482710026003200a1
:101790000004be000200be006011b8006b0920000a
:1017a000950220000182cf000a0039000541b100f6
:1017b0000082cf00070039000541b1000982cf0047
:1017c000040039000541b1000882cf000100390052
:1017d0000541b10005425200120032000a003b00f0
:1017e00082817100610164008100d1000080d3001a
:1017f0008984d3000884d3008b05e8000442e80004
:10180000f7ff3a00070037000804440089844c00c1
:1018100000004800818048008b05e9000442e9008f
:10182000f9ff3a008afc07004f05be004f04be00d6
:10183000000006000400200000003700889fbe0062
:101840008a9fbe008c1f78004f26dd00bbfc07007e
:10185000c2fc33006120e100430032006250e1002d
:1018600041003e003e0039006420e1003c003200af
:10187000058255000f003b000402e80038003a00e2
:10188000800f5300818f5b00350034000800be00dc
:1018900003f0a10001f0a60003f0a0000cf0a700e7
:1018a0008bfb0700b6fc37000603430087834b0021
:1018b0000c4646000005530081855b0002003300a2
:1018c0000a03be000c00a0000402e900f6ff3b0082
:1018d000850578000602430087824b0004003a0029
:1018e0006000b80009f0a70001f0a000a4fc3700d8
:1018f0000002520081825a000704e0000400330015
:101900000603430087834b008b05e900faff37008d
:10191000090578000604be000203be006011b8008d
:101920004bfc0700e00f5200e08f5a000700350023
:1019300002003c000c08a300040032000601be00b7
:1019400003f0a0000cf0a70061fb07000a85680007
:1019500001f0a1000af0a70001f0a00088fc370008
:101960000800be0086fc3700100220000cf0a60024
:10197000e043880086fc37000003be005afc0700e5
:101980006220e100020032000600be0000000600f6
:1019900085024100e30f20000328e10005003c0020
:1019a000a3fe2f000328e10007003d0005002000f2
:1019b00001003700f50f200020022000e0438800de
:1019c0006000b80008003700130020008381520037
:1019d00005003d008100d1000080d3008301e800b4
:1019e000fcff3a0005002000c72add00f107b20025
:1019f0008580700007f0a70001f0a000000006003d
:101a0000889fbe008a9fbe008c9fbe0099fe070083
:101a1000850478000005be006420e10049003e0016
:101a20006220e10003003200090035000bf8a3003a
:101a3000440032000bf8a30008003200100220001e
:101a4000e0438800f0ff2f00f1ff27003d00370042
:101a500001f82f00000020003a0037003d00070089
:101a60001afb07000006be000a00be00324f20002d
:101a700053f32300c8fb0700060034000c00be002f
:101a80003400070011fb07000006be000a00be007c
:101a9000020037008904e9000c00be002d00070099
:101aa0004dfc07002b00070009fb07000001be00ea
:101ab0000c00be0065fb07000005be000001be0073
:101ac00045fc07000006be00a2f32300430d2c00d6
:101ad000fffa0700809fbe000c00be00d2e3270083
:101ae000d3f02b003cfc07004f01be0057fb070062
:101af0000006be000a01be0037fc07000a01be0056
:101b0000f3fa07000006be006148b900c5fb0700f4
:101b10000005be0032082800e3952b002efc0700cc
:101b20000c01be00eafa07000006be000a00be0073
:101b30000200280013f3230027fc07000c01be005d
:101b4000e3fa07004f06be004f05be004f04be007b
:101b50000000060003f023000200050006c2b300e7
:101b60000002780004007800b042780086cf52006e
:101b7000fbff3200e9cf5200f9ff3200d6c2b300ba
:101b800086cf520003003a000002780016c0b3006e
:101b9000050037000043eb00b7c2b30087cf520007
:101ba00001003a00000278000000eb00020037005c
:101bb0006a00b90000804200b402fb000503b100d6
:101bc000e98f5200faff3600e04f53000100320067
:101bd0000000ea0000000600000278000200370062
:101be000315a78000201e900e00f5100fcff3a0091
:101bf000000006000002780002003700015a780059
:101c00000201e900e00f5100fcff3a00000006006d
:101c10000c00fa00889fbe00f4ff27000004780043
:101c2000d4bf9f008004eb0088bf9f0099bf9f0036
:101c3000a8bf9f00240c200078815700b4bf9f00ec
:101c4000cfb0970070805700070007000fba9700c9
:101c5000094a78000fba9700080052004f04be00ee
:101c60000080fa0000000600ef03b000889fbe006d
:101c70008a9fbe008c9fbe00800678008e1f780071
:101c80000007eb00d1af9f00a2b79f0066033700ab
:101c9000dfa8970054c2b3008100e800d1af9f00d5
:101ca000844f500006003a00010278000006eb0065
:101cb00001c3b30000c2b300b7c2b3000e003700c7
:101cc0003d0290000404b200040032001d027800be
:101cd000004a7800840ee800050037000000fb0091
:101ce0008d0078005c030700e10f40004e033200d6
:101cf0000e07e8004c03370084027800d2c2b3001c
:101d000034437800824f53000900320005003c0044
:101d1000804f530008003200874f53000c003a00f8
:101d200007003700814f530009003a0006003700d2
:101d30000c30a000f0ff37000c00a000eeff3700d1
:101d40000c10a000ecff37000c20a000eaff3700c9
:101d500062026600010032000c00a1006802660009
:101d6000010032000c20a1000602fb000403b100b8
:101d7000e90f52000c003e00050378000002eb0062
:101d8000b603fb006a22b9000703b100860278009f
:101d9000048243009603fb000703b100e98f530060
:101da000f7ff3600080037000002eb00a7c2b300bf
:101db000874f530004003a00afb197008502e80056
:101dc00043027800a3b79f000003eb0096b79f0083
:101dd000e6c2b300954f13000c003a000ce0a000df
:101de00064435300d54f130003003200050378000d
:101df0000000eb0009003700afb397008502e80050
:101e000047047800a7b79f0098b79f0005037800a4
:101e1000090037006a00b90000804300860278009c
:101e2000b603fb000703b100e98f5300f9ff36004a
:101e300090b79f00f5ff3700b6427800cac6b300de
:101e4000d6af9f008acf5200250032000f003c0021
:101e500036c6b30086cf52009e00320004003c001c
:101e6000e0cf5200f50232006b4353000f00370001
:101e700046c6b30086cf52001700320065434300c8
:101e800086cf5200b2003a001300370036c7b300c5
:101e900086cf52001f00320007003c00644353000d
:101ea00086cf5200140032000643e80086cf52006d
:101eb000a7003a001300370056c7b30086cf520080
:101ec000aa0032006343430086cf5200a0003a00cc
:101ed000e5779f000d003700e5779f00a5003700ec
:101ee000f003660005012000010032000500280013
:101ef0000c867200d0ff3700e5779f000c60a000d1
:101f00009c003700e5779f000c50a0000c70a000eb
:101f100098003700afb59700e5779f00cb027800b7
:101f2000abb79f00b5b79f00e08f520002003a00a8
:101f300001942000b1b79f003fb397008002eb00ef
:101f4000010037008502e800e6c37a00e0cf5300c5
:101f5000fcff3a00c5b79f001fb19700e00f51008a
:101f600005003200cfb19700830f5100020031000d
:101f700082027800c5b79f00cfb297000004eb0043
:101f8000850f520001003600050452006806660005
:101f900009c2b3000f003200290037003d02900053
:101fa0000404b200040032001d027800094a7800df
:101fb000840ee800050037008d0078000002200044
:101fc000a5020700e10f4000010032000e07e80003
:101fd0000804e900e00f5400f0ff3a000084eb0031
:101fe00017003700bd0290000504b200090032005e
:101ff000880278009d03780035437800864b78008e
:1020000005047800870ee800e04f53000a003a000c
:1020100011003700880278008d0078003500fb0041
:1020200084bf9f00050478008b0207000fba970059
:10203000e10f4000080032000e07e80006003700fc
:102040000c027800080678003fb49700cfb49700e0
:102050005fb59700efb59700890278008504e90025
:10206000e08f5200dfff3a00b8b79f00c9b79f006a
:10207000dab79f00ebb79f000c04780009c2b300e9
:1020800004067800e00f56000f003a0066023700a1
:102090003d0290000404b200040032001d027800ea
:1020a000094a7800840ee800050037008d007800aa
:1020b0000002200068020700e10f4000010032002a
:1020c0000e07e8000804e900e00f5400f0ff3a00b2
:1020d00055023700afb097007003660041047800e6
:1020e000a1b79f00cfc4de00090578008a057800fb
:1020f0000800be000a01be004800de00c80add007c
:1021000000807200e0779f00e00f5300090032006a
:10211000e04f500007003200e14f40000500320060
:1021200026002000f0779f00887f9f00c6b79f00a1
:102130000300370017002000c7b79f00f8779f0003
:1021400078fb2f0008844700b8b79f0082ff370054
:1021500069fb2f001a00200089844700e5779f0063
:10216000b9b79f00cab79f007bff3700e5779f0094
:102170000c0cb3008c027800050cb2003b003a0056
:10218000e00f560005003d00afb297004501be00cc
:102190004500be00a5b79f000f003700f0026600a3
:1021a000120032002fb497004803be00f69f9f0034
:1021b00087a79f00a8b79f0098029000cfaade00d3
:1021c00095a79f00a5a79f007f9897008fa09700d5
:1021d0001fa19700afa19700b0b79f00c1b79f00a4
:1021e000d2b79f00e3b79f000b003700afb0970056
:1021f000c102780005047800cfc4de00090578002c
:102200008a057800a1b79f00b8b79f00c9b79f00a3
:10221000dab79f00ebb79f003fb09700cfb09700b1
:102220005fb19700efb19700e00f5000e08f5800ca
:10223000e00f5900e08f590032003d006000b80007
:102240006011b8003fb49700cfb497005fb5970016
:10225000efb597003c00b300080450008984580093
:102260000a0559008b85590022003700e00f5600ff
:1022700005003d00afb297004501be004500be001d
:10228000a5b79f000f003700f00266001200320071
:102290002fb497008004eb004803be000005eb005c
:1022a00096af9f00a7af9f00b9af9f00caaf9f0036
:1022b0001fa89700afa897003fa99700cfa9970044
:1022c000a8b79f00b0b79f00c1b79f00d2b79f00cb
:1022d000e3b79f000b003700afb09700c102780052
:1022e000a1b79f0005047800090020000a00200023
:1022f0000b002000b8b79f00c9b79f00dab79f0056
:10230000ebb79f009fb49700e08f54000d003a0098
:102310001a0020003fb09700cfb097005fb1970040
:10232000efb197009ab79f00e00f5000e08f580080
:10233000e00f5900e08f5900020032008000eb00ee
:1023400091b79f000c01780005042000020cb20038
:1023500082b79f00850f51003400320003003c001b
:10236000e00f510008003200480037000508200047
:102370008fb19700858f510014003200050c2000aa
:10238000858f510041003a006688200015c0b300d7
:102390003600be003601be003fb49700cfb49700b0
:1023a0005fb59700efb597000040e10001c8e1007c
:1023b00002d0e10003d8e100330039008542e80093
:1023c000f4cf5200f2ff3a002f00370015c0b300df
:1023d00000012000010020006011b8003fb4970008
:1023e000cfb497005fb59700efb597000040e100cc
:1023f00001c8e10002d0e10003d8e1002200390069
:10240000490020000000d0008180d2000281d2006b
:102410008381d2008904e900faff3a008542e8008e
:10242000f0cf5200edff3a001700370015c0b3009f
:1024300080002000010020006011b8003fb4970028
:10244000cfb497005fb59700efb597000040e1006b
:1024500001c8e10002d0e10003d8e1000a00390020
:10246000390020000000d0008180d2000281d2001b
:102470008381d2008904e900faff3a008542e8002e
:10248000f5cf5200edff3a00e5779f006f7597009a
:102490009fb597008a02fb008b8f520002003d001f
:1024a000eb779f00040037001fb09700850f5000a6
:1024b00001003d0095b79f00e00f5200030032007d
:1024c000e3026600010032000402e9000500240076
:1024d00085026600060032009fb09700810f52000f
:1024e0000200340001025200010037000002eb003c
:1024f0006f7197008001eb008202fb00f3af9f0039
:10250000850f52000200340085025200f5af9f0093
:10251000640266003b003200e2026600610266006f
:10252000e08f520011003200bd0290000504b2009d
:10253000080032009d027800b6c2b300e00f5200de
:102540000100320006c3e800864a7800850ee800e4
:1025500015003700b0022000e00f520001003200e9
:102560000080e8008d0078000c003700e00f52007a
:102570000e0032003d0290000404b200050032005b
:102580001d02780005c2b300054a7800840ee800f9
:10259000050037008d007800000220002e010700a2
:1025a000e10f4000010032000e07e8007faa97000b
:1025b000e00f52004f00320008c3b30084047800db
:1025c0003d0290000404b200040032001d027800b5
:1025d000084a7800840ee800050037008d00780076
:1025e000000320001c010700e10f40000100320041
:1025f0000e07e8008904e900f1ff3a00f9af9f00f7
:102600003c003700ffaa9700e08f52001400320010
:102610006802660012003a0008c2b3008504780020
:102620003d0290000404b200040032001d02780054
:10263000084a7800840ee800050037008d00780015
:102640000002200004010700e10f400001003200f9
:102650000e07e8008904e900f1ff3a00f9af9f0096
:10266000e202660061026600e08f52001100320053
:10267000bd0290000504b200080032009d027800ff
:10268000b6c2b300e00f52000100320006c3e800fa
:10269000864a7800850ee80015003700b002200059
:1026a000e00f5200010032000080e8008d00780049
:1026b0000c003700e00f52000e0032003d02900087
:1026c0000404b200050032001d02780005c2b30008
:1026d000054a7800840ee800050037008d00780078
:1026e00000022000dc000700e10f40000100320082
:1026f0000e07e8001fb39700e58720000602e900f7
:10270000f0046600c223dd000c057800c7a79f0017
:102710000a02b2006323b900e99f9f000604780013
:102720004322dd00b8a79f0085024200da9f9f0088
:10273000e5af9f00a30037009fb597000fb097004b
:102740008b05e900010420009bb79f00810f50001a
:102750007300320003003c00e00f5000080032001c
:102760007e003700040820000fb19700840f51004d
:1027700056003200040c2000840f510077003a000c
:10278000e00f56001f003d00efa997003304be0084
:102790002305be003fb09700cfb097005fb1970010
:1027a000efb197000802be000a03be00e301070074
:1027b0000802be000a03be00e0779f000000fb0095
:1027c000cf80de000101780082017800440207001a
:1027d0003fb29700cfb297005fb39700efb3970077
:1027e0000002520081825a0002035b0083835b0077
:1027f000b4b79f00c5b79f00d6b79f00e7b79f004b
:102800002e003700ef9a9700e08f5200220032002e
:102810006fab97003fb29700cfb297003604be006f
:102820002605be000400be000801be0084bf9f0054
:10283000f5b79f000005eb00fbfa07000801be009a
:10284000e0779f000000fb00cf80de000a01070058
:102850000fba9700ffb297008aaf9f0000045200a2
:1028600081845a00d8a79f00e9a79f008004eb004d
:10287000f9a79f005fa09700efa097007fa19700a6
:102880008fa99700b0b79f00c1b79f00d2b79f0034
:10289000e3b79f0009003700efa897003fb197000a
:1028a00011027800110009000481d800a400200062
:1028b000110009000480d800e1779f00ef719700b4
:1028c0000343b000e3779f0024003700f492200018
:1028d000df9a9700e08f520001003200e49120005f
:1028e0003fb09700cfb097005fb19700efb197006e
:1028f0004fa397000603e900050033008301d100d0
:102900000281d3008180d3000080d300f9ff37001b
:102910006f00600064407800e0779f000f00370090
:102920003fb29700cfb297005fb39700efb3970025
:102930003fa497000804e900050033008703d10095
:102940000683d3008582d3000482d300f9ff3700c9
:10295000674262000443b000e4779f003d029000ac
:102960000404b200070032009d0278006f729700e5
:10297000844a7800850ee800e04f520007003a00d4
:1029800007003700ef7497008d0078000900fb0006
:1029900031000700e10f4000010032000e07e8009f
:1029a0004fa59700bfa597006fa897006405550035
:1029b000e385550068005000caa79f00bba79f0091
:1029c000e0af9f009fb09700e08f50005aff3a00a1
:1029d00068066600140032007fa99700e00f5100de
:1029e0001100340008c2b300820478003d02900058
:1029f0000404b200040032001d027800084a780086
:102a0000840ee800050037008d00780000022000e9
:102a100011000700e10f4000010032000e07e8003e
:102a20008904e900f1ff3a00dfa99700134078001c
:102a3000e0779f00e04f500095fc3a000e007800d0
:102a40004f0778004f06be004f05be004f04be0082
:102a5000ef03b10000000600889fbe00010478006b
:102a60008084eb0038029000e20262003b003200fa
:102a700004037800980290000620b20002003a0099
:102a8000e08f520035003a000490a00080047800e6
:102a900034049800f90fb200e08f520002003a00af
:102aa000a8029000050c7800ea8f540005003a0057
:102ab0000408b20003003a0088007800d00020002b
:102ac000e5ff070018029000d8029000850f520021
:102ad0000b0032000402e80015c0b3001404980093
:102ae00018027800094a7800040ce800e4962000f7
:102af000054a7800ea8f540018003a0005003700b4
:102b000009407800880078001700070080047800ea
:102b100012003700380290000410b2000f0032009b
:102b200018019000a800900048009000b7f6070038
:102b300018029000840f5000040032003802900008
:102b40000403b300340498008084eb000002eb001f
:102b50001404980028029000040c78000900780002
:102b60004f04be00000006000200fa00889fbe006d
:102b700001047800a0ff9f003802900084027800d2
:102b80000504b200020032000000fb0035003700ef
:102b9000e202620005003a000403b3001504980045
:102ba000340498000080eb002e003700d804900019
:102bb000e08f540006003a0012002000e680570023
:102bc0004800900091f60700190498002300370090
:102bd000a8029000e08f520008003a0025972000dc
:102be0000430a00025049800050c780034049800f7
:102bf0002500200055049800150498001801900045
:102c0000a80090004800900080f60700280290007d
:102c10008082eb0015049800affa9700054a78000f
:102c2000040ce8002ffa9700ea4f52000b003a001c
:102c3000380290000410b200080032001801900021
:102c4000a80090004800900070f607000002eb001a
:102c5000a802900014049800050c78002ffa970041
:102c60000400fb004f04be000080fa0000000600d4
:102c700000c0da0000000600020ab900001bb9001b
:102c80000200b800810042008100430000000600fd
:102c9000889fbe008a9fbe003004be002005be0093
:102ca0000404440085844c0006054d0087854d00d2
:102cb0000898be000a90be000440e10005c8e1008b
:102cc00006d0e10007d8e1000200310068004000b2
:102cd0001008e8004f05be004f04be0000000600cb
:102ce0001000fa00889fbe008a9fbe0011002000dd
:102cf0000605be000404be003002be002003be0074
:102d0000c4b79f00d5b79f00e6b79f00f7b79f00f5
:102d10000802520089825a000a035b008b835b0021
:102d200084bf9f0095bf9f00a6bf9f00b7bf9f00b5
:102d30000498be000698be004fb29700dfb297001d
:102d40006fb39700ffb397000820e10009a8e100e6
:102d50000ab0e1000bb8e100010039008000eb008f
:102d60004f05be00108810004f04be000080fa001e
:102d7000000006001400fa00889fbe008a9fbe0073
:102d80008c9fbe000006eb003e000700ccb79f0002
:102d9000bcb79f00acb79f009cb79f008cb79f004b
:102da0000605be000404be000d0420004fb39700ca
:102db000bfb29700860343002fb29700e00f530085
:102dc00004003d003d0007000f004000b0ff070079
:102dd00003003700390007000f004000c0ff070064
:102de000cfb2970095bf9f00e08f520009003500d9
:102df0002b00070014002000050020006033b800fd
:102e000000007200818072000201730083817300f0
:102e10001c0007000c06e8008d0f5600e3ff3a0087
:102e20001fba9700e00f520005003d000802be00e7
:102e30000a03be0000fe2f000f00400094ff0700b1
:102e40004faa9700e00f520008003a000fb4970015
:102e50009fb497002fb59700bfb59700d8b79f00d4
:102e6000e9b79f00fab79f008bbf9f000c000700d7
:102e70004f06be004f05be004f04be000080fa00a2
:102e800000000600010007000000060090b79f0048
:102e9000a1b79f00b2b79f00c3b79f000000060014
:102ea00001000700000006001fb09700afb09700b8
:102eb0003fb19700cfb19700000006004f2bde0016
:102ec000f9ff070086837300858242004f23de00ee
:102ed000a7b79f00868272000402420095b79f0048
:102ee000ffaa97004f2bde00858242000602720087
:102ef00084b79f006faa97004f23de0004024200b0
:102f000086827200f5af9f004f18de00000272004b
:102f1000e5ff0700e4af9f0000004000818048000b
:102f200002014900838149000802be000a03be0075
:102f3000d6ff070000fe2f0000000600881f780063
:102f400018002000881f78008aff07008f87e9009b
:102f50004f04780000000600801feb0085ff07008b
:102f60008f87e90000000600889fbe008a9fbe0090
:102f7000e00f5000e08f5800e00f5900e08f59003b
:102f80000c003d006044b8006055b80000005400db
:102f900081805c0002015d0083815d0018002000db
:102fa0001500070008003d00180007000004eb00b2
:102fb000050037000004eb000f00070002003d0091
:102fc0001200070018002000dcff0700e00f54008b
:102fd000060032006022b8006033b80000005200e2
:102fe00081805a0002015b0083815b004f05be00b7
:102ff0004f04be0000000600e00f5200e08f5a00b0
:10300000e00f5b00e08f5b00000006006044b8004a
:103010006055b8000402540085825c0006035d0020
:1030200087835d0000000600889fbe008a9fbe0067
:103030008c1f7800e00f5000e08f5800e00f59001f
:10304000e08f59000d003d006044b8006055b800a5
:103050001c0020000000540081805c0002015d0023
:1030600083815d000820e10009a8e1000ab0e100c9
:103070000bb8e1000d003d00080037000006eb0032
:10308000e00f5200e08f5a00e00f5b00e08f5b0022
:1030900006003d006044b8006055b80004025400ca
:1030a00085825c0006035d0087835d00aaff070040
:1030b000e00f5600060032006022b8006033b8000e
:1030c0000000520081805a0002015b0083815b0096
:1030d0004f0678004f05be004f04be0000000600fa
:1030e000889fbe008a9fbe008c1f78000006eb0000
:1030f000e00f5000e08f5800e00f5900e08f5900ba
:1031000007003d006044b8006055b8001c00200076
:103110000000540081805c0002015d0083815d003d
:10312000e00f5200e08f5a00e00f5b00e08f5b0081
:1031300007003d006044b8006055b8000c00a200d4
:103140000402540085825c0006035d0087835d00f5
:103150000c000700e00f5600060032006022b800a5
:103160006033b8000000520081805a0002015b0009
:1031700083815b004f0678004f05be004f04be0000
:1031800000000600889fbe008a9fbe008c9fbe0084
:103190000404b8000506b8008904460060854e00a6
:1031a0000606b8000a054600e0854e000706b8008e
:1031b0008b054600040eb800890446000a854e00bf
:1031c000e0854d00050eb8000a0546008b854e00cf
:1031d000060eb8008b0546000416b8000a05460026
:1031e0008b854e000516b8008b054600041eb800fe
:1031f0008b0546000800be000a01be004f06be0057
:0c3200004f05be004f04be000000060099
:020000040000fa
:10320c00ff8300008589000091a10000a1910000be
:10321c008985000083ff0000000000000000000012
:10322c000000000000000000065f00000600000027
:10323c00000700000300000007030000002400004a
:10324c007e2400007e240000002400002b6a000075
:10325c00120000000063000013080000646300000b
:10326c00003600004956000020500000000000000d
:10327c000703000000000000000000003e410000b9
:10328c000000000000000000413e000000000000b3
:10329c00000800003e1c00003e0800000008000072
:1032ac00083e00000808000000000000e06000007c
:1032bc0000000000000800000808000008080000da
:1032cc000000000060600000000000000020000012
:1032dc001008000004020000003e000051490000ec
:1032ec00453e000000000000427f0000400000004e
:1032fc000062000051490000494600000022000015
:10330c004949000049360000001800001412000062
:10331c007f100000002f00004949000049310000d7
:10332c00003c00004a490000493000000001000048
:10333c007109000005030000003600004949000037
:10334c00493600000006000049490000291e000013
:10335c00000000006c6c0000000000000000000089
:10336c00ec6c0000000000000008000014220000bb
:10337c00410000000024000024240000242400004c
:10338c0000000000412200001408000000020000b0
:10339c000159000009060000003e0000415d0000dc
:1033ac00551e0000007e000011110000117e00006f
:1033bc00007f00004949000049360000003e000033
:1033cc004141000041220000007f0000414100000b
:1033dc00413e0000007f00004949000049410000c7
:1033ec00007f00000909000009010000003e0000f8
:1033fc0041490000497a0000007f000008080000e5
:10340c00087f000000000000417f00004100000028
:10341c000030000040400000403f0000007f0000f2
:10342c000814000022410000007f00004040000012
:10343c0040400000007f000002040000027f0000fa
:10344c00007f000002040000087f0000003e000026
:10345c0041410000413e0000007f000009090000ce
:10346c0009060000003e000041510000215e0000f2
:10347c00007f00000909000019660000002600000a
:10348c00494900004932000000010000017f0000a2
:10349c0001010000003f000040400000403f0000e0
:1034ac00001f000020400000201f0000003f000013
:1034bc00403c0000403f0000006300001408000086
:1034cc0014630000000700000870000008070000eb
:1034dc00007100004945000043000000000000009e
:1034ec007f410000410000000002000004080000c1
:1034fc001020000000000000414100007f0000008f
:10350c0000040000020100000204000080800000a2
:10351c008080000080800000000000000307000095
:10352c0000000000002000005454000054780000fb
:10353c00007f0000444400004438000000380000c4
:10354c0044440000442800000038000044440000bb
:10355c00447f000000380000545400005408000060
:10356c00000800007e09000009000000001800009f
:10357c00a4a40000a47c0000007f00000404000050
:10358c007800000000000000007d000040000000fa
:10359c0000400000808400007d000000007f0000df
:1035ac00102800004400000000000000007f000014
:1035bc0040000000007c00000418000004780000ab
:1035cc00007c0000040400007800000000380000bb
:1035dc00444400004438000000fc00004444000057
:1035ec0044380000003800004444000044fc000053
:1035fc0000440000784400000408000000080000ab
:10360c005454000054200000000400003e4400000c
:10361c0024000000003c0000402000007c00000062
:10362c00001c000020400000201c0000003c00009a
:10363c0060300000603c0000006c000010100000c6
:10364c006c000000009c0000a06000003c0000002a
:10365c0000640000545400004c00000000080000fe
:10366c003e4100004100000000410000413e0000ce
:10367c0008000000000000000077000000000000bf
:10368c00000000000000000000000000000000002e
:10369c00000000000000000000000000000000001e
:1036ac00000000000000000000000000000000000e
:1036bc0000000000000000007cff0000ff7c000008
:1036cc0000000000000000000000000000000000ee
:1036dc000033000033000000000000000000000078
:1036ec0000000000003c00003c000000003c00001a
:1036fc003c00000000000000000000000000000082
:10370c0000000000000000000000000000000000ad
:10371c000000000010900000f07e00001e900000e1
:10372c00f07e00001e100000000200001e1f0000b2
:10373c00030200001e1f0000030200000000000036
:10374c000000000078fc0000ccff0000ffcc000063
:10375c00cc8800000000000000000000040c0000f9
:10376c000c3f00003f0c00000f07000000000000a1
:10377c0000000000383800003800000080c0000055
:10378c00e0700000381c000000300000381c000005
:10379c000e0700000301000038380000380000005c
:1037ac000000000000b80000fcc60000e23e000073
:1037bc001c00000000000000000000001f3f000083
:1037cc0031210000371e00001c36000022000000d2
:1037dc000000000000000000273f00001f00000058
:1037ec0000000000000000000000000000000000cd
:1037fc0000000000000000000000000000000000bd
:10380c000000000000f00000fcfe000007010000ba
:10381c000100000000000000000000000003000098
:10382c000f1f0000382000002000000000000000e6
:10383c00000000000001000001070000fefc000079
:10384c00f00000000000000000000000002000005c
:10385c00203800001f0f00000300000000000000d3
:10386c000000000098b80000e0f80000f8e000004c
:10387c00b898000000000000000000000c0e0000d2
:10388c00030f00000f0300000e0c000000000000ee
:10389c00000000008080000080f00000f08000003c
:1038ac00808000000000000000000000010100000a
:1038bc00010f00000f0100000101000000000000da
:1038cc0000000000000000000000000000000000ec
:1038dc0000000000000000000000000000000000dc
:1038ec00b8f80000780000000000000000000000a4
:1038fc0000000000808000008080000080800000bc
:10390c0080800000000000000000000001010000a9
:10391c000101000001010000010100000000000095
:10392c00000000000000000000000000000000008b
:10393c00000000000000000000000000000000007b
:10394c0038380000380000000000000000000000c3
:10395c00000000000000000000800000c0e000003b
:10396c00703800001c0e0000001800001c0e000037
:10397c000703000001000000000000000000000030
:10398c0000f80000fe06000003830000c363000083
:10399c00331e0000fef80000000700001f1e000090
:1039ac003331000030300000301800001f070000d9
:1039bc0000000000000c00000c0e0000ffff0000d7
:1039cc0000000000000000000000000000300000bb
:1039dc00303000003f3f000030300000300000006d
:1039ec00001c00001e0700000303000083c300003e
:1039fc00e37700003e1c000000300000383c000063
:103a0c003e37000033310000303000003030000011
:103a1c00000c00000e070000c3c30000c3c300006d
:103a2c00c3e700007e3c0000000c00001c380000c6
:103a3c003030000030300000303900001f0e000024
:103a4c0000c00000e0700000381c00000e070000f1
:103a5c00ffff000000000000000300000303000053
:103a6c0003030000030300003f3f000003030000ba
:103a7c00003f00007f63000063630000636300008d
:103a8c0063e30000c3830000000c00001c3800003e
:103a9c003030000030300000303800001f0f0000c4
:103aac0000c00000f0f80000dcce0000c7c300002e
:103abc00c3c3000080000000000f00001f3900008d
:103acc003030000030300000303900001f0f000093
:103adc0000030000030300000303000003c3000005
:103aec00f33f00000f030000000000000000000086
:103afc00303c00000f03000000000000000000003c
:103b0c0000000000bcfe0000e7c30000c3c30000bf
:103b1c00e7fe0000bc000000000f00001f39000091
:103b2c003030000030300000303900001f0f000032
:103b3c00003c00007ee70000c3c30000c3c30000cc
:103b4c00c3e70000fefc0000000000000030000095
:103b5c0030300000381c00000e070000030000008d
:103b6c0000000000000000007070000070000000f9
:103b7c000000000000000000000000000000000039
:103b8c001c1c00001c0000000000000000000000d5
:103b9c0000000000000000007070000070000000c9
:103bac000000000000000000000000000000000009
:103bbc009cfc00007c0000000000000000000000e5
:103bcc0000000000c0e00000f03800001c0e0000f7
:103bdc0007030000000000000000000000010000ce
:103bec00030700000e1c000038300000000000002d
:103bfc000000000060600000606000006060000079
:103c0c00606000006000000000000000060600007c
:103c1c00060600000606000006060000060000006e
:103c2c0000000000030700000e1c000038f000002c
:103c3c00e0c0000000000000000000003038000070
:103c4c001c0e000007030000010000000000000033
:103c5c00001c00001e07000003830000c3e30000eb
:103c6c00773e00001c000000000000000000000077
:103c7c0000370000370000000000000000000000ca
:103c8c0000f80000fe070000f3fb00001bfb000027
:103c9c00fb070000fef80000000f00001f180000da
:103cac0033370000363700003736000003010000c0
:103cbc000000000000e00000fc1f00001ffc0000e2
:103ccc00e000000000000000003800003f0700008a
:103cdc000606000006060000073f00003800000042
:103cec0000ff0000ffc30000c3c30000c3e70000d7
:103cfc00febc000000000000003f00003f30000050
:103d0c003030000030300000391f00000f00000080
:103d1c0000f00000fc0e000007030000030300008d
:103d2c00070e00000c000000000300000f1c000038
:103d3c003830000030300000381c00000c0000004f
:103d4c0000ff0000ff030000030300000307000056
:103d5c000efc0000f0000000003f00003f300000af
:103d6c0030300000303800001c0f00000300000051
:103d7c0000ff0000ffc30000c3c30000c3c300006a
:103d8c00c303000003000000003f00003f300000b0
:103d9c0030300000303000003030000030000000c7
:103dac0000ff0000ffc30000c3c30000c3c300003a
:103dbc00c303000003000000003f00003f000000b0
:103dcc0000000000000000000000000000000000e7
:103ddc0000f00000fc0e000007030000c3c300004d
:103dec00c3c70000c6000000000300000f1c000049
:103dfc003830000030300000303f00003f00000041
:103e0c0000ff0000ffc00000c0c00000c0c00000e8
:103e1c00c0ff0000ff000000003f00003f0000005a
:103e2c000000000000000000003f00003f00000008
:103e3c00000000000003000003ff0000ff0300006f
:103e4c000300000000000000000000000030000033
:103e5c00303f00003f300000300000000000000048
:103e6c000000000000000000000000000000000046
:103e7c0000ff0000ff000000000e00001e380000d4
:103e8c003030000030300000381f00000700000008
:103e9c0000ff0000ffc00000e0f00000381c000034
:103eac000e07000003000000003f00003f00000070
:103ebc0001030000070e00001c3800003000000059
:103ecc0000ff0000ff0000000000000000000000e8
:103edc000000000000000000003f00003f30000028
:103eec003030000030300000303000003000000076
:103efc0000ff0000ff1e000078e00000e0780000ea
:103f0c001eff0000ff000000003f00003f0000000b
:103f1c000001000001000000003f00003f00000015
:103f2c0000ff0000ff0e000038f00000c000000091
:103f3c0000ff0000ff000000003f00003f000000f9
:103f4c0000000000030700001c3f00003f000000c1
:103f5c0000f00000fc0e0000070300000307000047
:103f6c000efc0000f0000000000300000f1c00001d
:103f7c0038300000303800001c0f00000300000037
:103f8c0000ff0000ff830000838300008383000098
:103f9c00c7fe00007c000000003f00003f01000055
:103fac000101000001010000010000000000000000
:103fbc0000f00000fc0e00000703000003070000e7
:103fcc000efc0000f0000000000300000f1c0000bd
:103fdc0038300000363e00001c3f0000330000006b
:103fec0000ff0000ff830000838300008383000038
:103ffc00c7fe00007c000000003f00003f010000f5
:10400c0001030000070f00001d3800003000000005
:10401c00003c00007ee70000c3c30000c3c30000e7
:10402c00c78e00000c000000000c00001c380000c3
:10403c003030000030300000391f00000f0000004d
:10404c00000000000303000003ff0000ff0300005a
:10405c00030300000000000000000000000000004e
:10406c00003f00003f0000000000000000000000c6
:10407c0000ff0000ff000000000000000000000036
:10408c0000ff0000ff000000000700001f380000c8
:10409c003030000030300000381f000007000000f6
:1040ac00000700003ff80000c000000000c0000046
:1040bc00f83f0000070000000000000000010000b5
:1040cc000f3e00003e0f0000010000000000000049
:1040dc0000ff0000ff0000000080000080000000d6
:1040ec0000ff0000ff000000003f00003f1c00002c
:1040fc0006030000030600001c3f00003f00000008
:10410c00000300000f1c000030e00000e030000055
:10411c001c0f000003000000003000003c0e0000eb
:10412c0003010000010300000e3c00003000000001
:10413c00000300000f3c0000f0c00000c0f00000c5
:10414c003c0f000003000000000000000000000015
:10415c00003f00003f0000000000000000000000d5
:10416c00000300000303000003c30000e33300005e
:10417c001f0f000003000000003000003c3e000058
:10418c0033310000303000003030000030000000cf
:10419c000000000000ff0000ff030000030300000c
:1041ac00030000000000000000000000003f0000c1
:1041bc003f300000303000003000000000000000f4
:1041cc00000e00001c38000070e00000c0800000f1
:1041dc0000000000000000000000000000000000d3
:1041ec000000000001030000070e00001c18000076
:1041fc0000000000000300000303000003ff0000a8
:10420c00ff00000000000000000000000030000073
:10421c0030300000303f00003f0000000000000084
:10422c0000600000703800001c0e0000070e00003b
:10423c001c3800007060000000000000000000004e
:10424c000000000000000000000000000000000062
:10425c000000000000000000000000000000000052
:10426c00000000000000000000c00000c0c0000002
:10427c00c0c00000c0c00000c0c00000c0c0000032
:10428c000000000000000000003e00007e4e000018
:10429c000000000000000000000000000000000012
:1042ac000000000000000000000000000000000002
:1042bc0000000000406000006060000060600000d2
:1042cc0060e00000c0000000001c00003e33000055
:1042dc003333000033330000333f00003f00000055
:1042ec0000ff0000ffc00000606000006060000084
:1042fc00e0c0000080000000003f00003f300000e4
:10430c003030000030300000381f00000f0000007b
:10431c0000800000c0e000006060000060600000f1
:10432c0060c0000080000000000f00001f3800007b
:10433c003030000030300000301800000800000061
:10434c0000800000c0e000006060000060e0000041
:10435c00c0ff0000ff000000000f00001f3800002d
:10436c003030000030300000303f00003f000000d3
:10437c0000800000c0e00000606000006060000091
:10438c0060c0000080000000000f00001f3b000018
:10439c0033330000333300003313000001000000fe
:1043ac0000c00000c0fc0000fec70000c3c300003a
:1043bc00030000000000000000000000003f0000af
:1043cc003f000000000000000000000000000000a2
:1043dc0000800000c0e00000606000006060000031
:1043ec0060e00000e000000000030000c7ce000009
:1043fc00cccc0000cccc0000e67f00003f000000dd
:10440c0000ff0000ffc000006060000060e00000e2
:10441c00c080000000000000003f00003f000000d2
:10442c0000000000000000003f3f00000000000002
:10443c00000000000000000060ec0000ec00000038
:10444c000000000000000000000000000030000030
:10445c00303f00003f300000300000000000000042
:10446c0000000000000000000000000060ec0000f4
:10447c00ec000000000000000000000000600000e4
:10448c00e0c00000c0ff00007f0000000000000042
:10449c0000000000ffff000000800000c0e00000f2
:1044ac006000000000000000000000003f3f000022
:1044bc00030700000f1c0000383000000000000053
:1044cc00000000000000000003ff0000ff000000df
:1044dc0000000000000000000000000000300000a0
:1044ec00303f00003f3000003000000000000000b2
:1044fc0000e00000c0e00000e0c00000c0e00000f0
:10450c00e0c0000080000000003f00003f00000001
:10451c00003f00003f000000003f00003f00000093
:10452c0000000000e0e0000060600000606000003f
:10453c00e0c0000080000000000000003f3f0000d1
:10454c000000000000000000003f00003f000000e1
:10455c0000800000c0e000006060000060600000af
:10456c00e0c0000080000000000f00001f380000b9
:10457c003030000030300000381f00000f00000009
:10458c0000e00000e060000060600000606000007f
:10459c00e0c000008000000000ff0000ff0c0000e5
:1045ac0018180000181800001c0f0000070000006d
:1045bc0000800000c0e0000060600000606000004f
:1045cc0060e00000e0000000000700000f1c00008d
:1045dc0018180000181800000cff0000ff00000065
:1045ec0000000000e0e00000c0600000606000001f
:1045fc0060e00000c0000000000000003f3f000031
:10460c00000000000000000000000000000000009e
:10461c0000c00000e060000060600000606000000e
:10462c0040000000000000000011000033330000c7
:10463c0033330000333f00001e0000000000000078
:10464c000060000060fe0000fe6000006060000082
:10465c00000000000000000000000000001f00002f
:10466c003f3000003030000030000000000000003f
:10467c0000e00000e000000000000000000000006e
:10468c0000e00000e0000000000f00001f380000f8
:10469c003030000030300000183f00003f000000b8
:1046ac0000600000e080000000000000000000003e
:1046bc0080e0000060000000000000000107000026
:1046cc001e380000381e000007010000000000002a
:1046dc0000e00000e000000000e00000e00000004e
:1046ec0000e00000e0000000000700001f380000a0
:1046fc001c0f00000f1c0000381f000007000000fa
:10470c0000600000e0c000008000000080c00000dd
:10471c00e06000000000000000300000381d0000c8
:10472c000f0700000f1d00003830000000000000d3
:10473c000000000060e0000080000000008000002d
:10474c00e06000000000000000000000008100009c
:10475c00e77e00001e0700000100000000000000c2
:10476c00006000006060000060600000e0e000009d
:10477c00602000000000000000300000383c000009
:10478c0036330000313000003030000000000000f3
:10479c000000000080c00000fc7e00000703000049
:1047ac0003030000000000000000000000010000f6
:1047bc001f3f0000706000006060000000000000ff
:1047cc00000000000000000000ff0000ff000000df
:1047dc0000000000000000000000000000000000cd
:1047ec00003f00003f00000000000000000000003f
:1047fc000000000003030000030700007efc000023
:10480c00c08000000000000000000000606000009c
:10481c00607000003f1f000001000000000000005d
:10482c0000100000180c0000040c00001810000010
:10483c00180c000004000000000000000000000044
:10484c00000000000000000000000000000000005c
:10485c0000000000187e00004242000042420000ae
:10486c00424200004242000042420000427e0000f0
:10487c000000000000000000187e00004242000012
:10488c0042420000424200004242000042620000ec
:10489c007e7e00000000000000000000187e00007a
:1048ac0042420000424200004242000042420000ec
:1048bc00627e00007e7e0000000000000000000010
:1048cc00187e0000424200004242000042420000ba
:1048dc00426200007e7e00007e7e00000000000030
:1048ec0000000000187e000042420000424200001e
:1048fc0042420000627e00007e7e00007e7e000050
:10490c000000000000000000187e00004242000081
:10491c0042420000426200007e7e00007e7e00006b
:10492c007e7e00000000000000000000187e0000e9
:10493c004242000042420000627e00007e7e000087
:10494c007e7e00007e7e0000000000000000000063
:10495c00187e000042420000426200007e7e000091
:10496c007e7e00007e7e00007e7e00000000000047
:10497c0000000000187e000042420000627e000031
:10498c007e7e00007e7e00007e7e00007e7e00002b
:10499c000000000000000000187e000042620000d1
:1049ac007e7e00007e7e00007e7e00007e7e00000b
:1049bc007e7e00000000000000000000187e000059
:1049cc00427e00007e7e00007e7e00007e7e000027
:1049dc007e7e00007e7e00000000000000000000d3
:1049ec00187e00007e7e00007e7e00007e7e000031
:1049fc007e7e00007e7e00007e7e000000000000b7
:104a0c00000000000000000000000000000000009a
:104a1c00000000000080000080c00000c0c000004a
:104a2c00c0c00000c0c00000c080000080000000ba
:104a3c00000000000000000000000000000000006a
:104a4c0000000000000000000000000000800000da
:104a5c00f0fc0000feff00003f1f000007070000f5
:104a6c00030300000303000003030000070700001a
:104a7c001f3f0000fffe0000fcf000008000000063
:104a8c00000000000000000000000000000000001a
:104a9c00f8ff0000ffff0000ff0300000000000013
:104aac0000000000000000000000000000000000fa
:104abc00000000000000000003ff0000ffff0000ea
:104acc00fff80000000000000000000000000000e3
:104adc0000000000ffff0000ffff0000ff000000cf
:104aec0000000000000000000000000000000000ba
:104afc0000000000000000000000000000ff0000ab
:104b0c00ffff0000ffff000000000000000000009d
:104b1c000000000000000000033f0000ffff000049
:104b2c00fff8000080000000000000000000000002
:104b3c0000000000000000000000000000800000e9
:104b4c00f8ff0000ffff00003f0300000000000022
:104b5c000000000000000000000000000000000049
:104b6c00010700000f1f00001f3e00003c7c0000ee
:104b7c007878000078780000787800007c3c0000a1
:104b8c003e1f00001f0f0000070100000000000086
:104b9c000000000000000000000000000000000009
:104bac0000000000000000000000000000000000f9
:104bbc0000000000000000000000000000000000e9
:104bcc0000000000000000000000000000000000d9
:104bdc0000000000000000000000000000000000c9
:104bec0000000000000000000000000000000000b9
:104bfc0000000000000000000000000080800000a9
:104c0c008080000000000000000000000000000098
:104c1c000000000000000000000000000000000088
:104c2c0000000000000000000000000000f0000088
:104c3c00f0f00000f0f00000f8f80000fcfe0000be
:104c4c00ffff0000ffff000000000000000000005c
:104c5c000000000000000000000000000000000048
:104c6c000000000000000000000000000000000038
:104c7c000000000000000000000000000000000028
:104c8c0000ff0000ffff0000ffff0000000000001d
:104c9c000000000000000000000000000000000008
:104cac0000000000000000000000000000000000f8
:104cbc0000000000000000000000000000000000e8
:104ccc000000000000ff0000ffff0000ffff0000dd
:104cdc0000000000000000000000000000000000c8
:104cec0000000000000000000000000000000000b8
:104cfc0000000000000000000000000000000000a8
:104d0c00000000000000000000ff0000ffff00009a
:104d1c00ffff000000000000000000000000000089
:104d2c000000000000000000000000000000000077
:104d3c00000000000000000000000000003c00002b
:104d4c003c3c00003c3c00003c3c00003c3f000074
:104d5c003f3f00003f3f00003c3c00003c3c00005b
:104d6c003c3c00003c3c0000000000000000000047
:104d7c000000000000000000000000000000000027
:104d8c000000000000000000000000000000000017
:104d9c000000000000000000000000000000000007
:104dac0000000000000000000000000000000000f7
:104dbc0000000000000000000000000000000000e7
:104dcc0000000000008000008080000080c0000017
:104ddc00c0c00000c0c00000c0c00000c0c00000c7
:104dec008080000080000000000000000000000037
:104dfc0000000000000000000000000000000000a7
:104e0c0000000000003f00001f0f00000f07000013
:104e1c000707000003030000030300000303000066
:104e2c0003070000070f00003fff0000fefc00001e
:104e3c00f8e000000000000000000000000000008e
:104e4c000000000000000000000000000000000056
:104e5c000000000000000000000000000000000046
:104e6c00000000000000000000800000f0ff0000c7
:104e7c00ffff0000ff1f000000000000000000000a
:104e8c000000000000000000000000000000000016
:104e9c000000000000000000000000000000000006
:104eac0080c00000e0f00000f8fc00007f3f000034
:104ebc001f0f0000070100000000000000000000b0
:104ecc0000000000000000000000000000000000d6
:104edc000000000080c00000e0f00000f8fc0000c2
:104eec007e3f00001f0f00000703000001000000c0
:104efc0000000000000000000000000000000000a6
:104f0c000000000000000000000000000000000095
:104f1c00000000003e3f00003f3f00003f3f00000c
:104f2c003d3c00003c3c00003c3c00003c3c000094
:104f3c003c3c00003c3c00003c3c00003c3c000085
:104f4c003c3c00003c3c0000000000000000000065
:104f5c000000000000000000000000000000000045
:104f6c000000000000000000000000000000000035
:104f7c000000000000000000000000000000000025
:104f8c000000000000000000000000000000000015
:104f9c000000000000000000000000000000000005
:104fac00008000008080000080c00000c0c00000b5
:104fbc00c0c00000c0c00000c0c00000c080000025
:104fcc0080800000000000000000000000000000d5
:104fdc0000000000000000000000000000000000c5
:104fec00003f00001f1f00000f0f0000070700000c
:104ffc00030300000303000003030000030300008d
:10500c00070700000f1f0000fffe0000fefc000061
:10501c00f000000000000000000000000000000094
:10502c000000000000000000000000000000000074
:10503c0000000000008000008080000080800000e4
:10504c0080c00000c0e00000f0f800007f7f00008e
:10505c003f0f0000070000000000000000000000ef
:10506c000000000000000000000000000000000034
:10507c00000000000000000000070000070700000f
:10508c0007070000070700000f0e00001e3e00007f
:10509c007cfc0000f8f00000e08000000000000044
:1050ac000000000000000000000000008000000074
:1050bc0000000000000000000000000000000000e4
:1050cc0000000000000000000000000000000000d4
:1050dc0000000000c0ff0000ffff0000ff3f0000c9
:1050ec0000000000000000000000000000000000b4
:1050fc001f1f00001f3e00003e3c00003c7c0000d7
:10510c00787800007878000078780000787c0000cf
:10511c003c3c00003e1f00001f0f00000703000076
:10512c000100000000000000000000000000000072
:10513c000000000000000000000000000000000063
:10514c000000000000000000000000000000000053
:10515c000000000000000000000000000000000043
:10516c000000000000000000000000000000000033
:10517c000000000000000000000000000000000023
:10518c000000000000000000000000000000000013
:10519c000000000000000000808000008080000003
:1051ac008000000000000000000000000000000073
:1051bc0000000000000000000000000000000000e3
:1051cc000000000000000000000000000080000053
:1051dc00c0e00000f8fc00007e3f0000ffff000074
:1051ec00ffff0000ff0000000000000000000000b6
:1051fc0000000000000000000000000000000000a3
:10520c000000000000c00000e0f00000f8fc00000e
:10521c007f1f00000f0700000301000000000000ca
:10522c00ffff0000ffff0000ff0000000000000077
:10523c000000000000000000000000000000000062
:10524c00f0f80000fcfe0000bf9f00008783000008
:10525c008180000080800000808000008080000041
:10526c0080800000ffff0000ffff0000ff800000b7
:10527c0080800000808000008000000000000000a2
:10528c0000000000070700000707000007070000e8
:10529c0007070000070700000707000007070000ca
:1052ac000707000007070000ffff0000ffff0000da
:1052bc00ff070000070700000707000007000000b9
:1052cc0000000000000000000000000000000000d2
:1052dc0000000000000000000000000000000000c2
:1052ec000000000000000000000000003f3f000034
:1052fc003f3f00003f0000000000000000000000e5
:10530c000000000000000000000000000000000091
:10531c000000000000000000000000000000000081
:10532c000000000000000000000000000000000071
:10533c000000000000000000000000000000000061
:10534c000000000000000000000000000000000051
:10535c00000000000000000000c00000c0c0000001
:10536c00c0c00000c0c00000c0c00000c0c0000031
:10537c00c0c00000c0c00000c0c00000c0c0000021
:10538c00c0c00000c0c00000000000000000000011
:10539c0000000000000000000000000000ff000002
:1053ac00ffff0000ffff00000303000003030000e9
:1053bc0003030000030300000303000003030000c9
:1053cc0003030000030300000303000000000000bf
:1053dc0000000000000000000000000000000000c1
:1053ec0000ff0000ffff0000ffff0000e0e00000f6
:1053fc00e0e00000e0e00000e0e00000e0c00000c1
:10540c00c0c0000080800000000000000000000010
:10541c000000000000000000000000000000000080
:10542c000000000000030000030300000101000065
:10543c000101000001010000010100000103000056
:10544c0003030000070f00003fff0000fffe0000f9
:10545c00f8e0000000000000000000000000000068
:10546c0000000000008000000000000000000000b0
:10547c000000000000000000000000000000000020
:10548c00000000000000000000800000e0ff0000b1
:10549c00ffff0000ff1f00000000000000000000e4
:1054ac000000000000000000001f00001f3f000073
:1054bc003e3e00003c7c00007878000078780000cc
:1054cc0078780000787c00003c3e00003e1f000015
:1054dc001f0f000007030000000000000000000088
:1054ec0000000000000000000000000000000000b0
:1054fc0000000000000000000000000000000000a0
:10550c00000000000000000000000000000000008f
:10551c00000000000000000000000000000000007f
:10552c00000000000000000000000000000000006f
:10553c00000000000000000000000000000000005f
:10554c00000000000080000080800000c0c000004f
:10555c00c0c00000c0c00000c0c00000c0000000ff
:10556c00000000000000000000000000000000002f
:10557c00000000000000000000c00000f0f8000077
:10558c00fcfe00003e1f00000f0f0000070700008c
:10559c0003030000030300000303000003070000e3
:1055ac0007000000000000000000000000000000e8
:1055bc000000000000000000c0fc0000ffff000025
:1055cc00ff1f000083c00000c0c00000e0e000002e
:1055dc00e0e00000e0e00000e0e00000e0c00000df
:1055ec00c0800000800000000000000000000000ef
:1055fc00000000000000000000000000ffff0000a1
:10560c00ffff0000ff07000007030000030100007c
:10561c000101000001010000010100000103000074
:10562c00030700000f3f0000ffff0000fef8000022
:10563c00e00000000000000000000000000000007e
:10564c00073f0000ffff0000fff80000c000000053
:10565c00000000000000000000000000000000003e
:10566c00000000000000000000e00000ffff000050
:10567c00ffff00001f000000000000000000000001
:10568c00000000000000000001030000070f0000f4
:10569c001f3f00003e3c00007c7800007878000042
:1056ac0078780000787c00003c3e00001f1f000052
:1056bc000f070000030000000000000000000000c5
:1056cc0000000000000000000000000000000000ce
:1056dc0000000000000000000000000000000000be
:1056ec0000000000000000000000000000000000ae
:1056fc00000000000000000000000000000000009e
:10570c00000000000000000000000000808000008d
:10571c00808000008080000080800000808000007d
:10572c00808000008080000080800000808000006d
:10573c00808000008080000080800000808000005d
:10574c00000000000000000000000000000000004d
:10575c000707000007070000070700000707000005
:10576c0007070000070700000707000007070000f5
:10577c000707000007c70000e7ff0000ffff00005d
:10578c007f1f00000000000000000000000000006f
:10579c0000000000000000000000000000000000fd
:1057ac0000000000000000000000000000000000ed
:1057bc0000c00000f0fc0000ffff00007f1f000095
:1057cc0007010000000000000000000000000000c5
:1057dc0000000000000000000000000000000000bd
:1057ec0000000000000000000000000000c00000ed
:1057fc00f0fc0000ffff00007f1f0000070100000d
:10580c00000000000000000000000000000000008c
:10581c00000000000000000000000000000000007c
:10582c00000000000000000080e00000f8fc000018
:10583c00ffff00003f1f00000701000000000000f8
:10584c00000000000000000000000000000000004c
:10585c00000000000000000000000000000000003c
:10586c000000000000200000383e00003f3f000018
:10587c003f0f0000030000000000000000000000cb
:10588c00000000000000000000000000000000000c
:10589c0000000000000000000000000000000000fc
:1058ac0000000000000000000000000000000000ec
:1058bc0000000000000000000000000000000000dc
:1058cc0000000000000000000000000000000000cc
:1058dc0000000000000000000000000000000000bc
:1058ec0000000000000000000000000000000000ac
:1058fc00000000008080000080c00000c0c00000dc
:10590c00c0c00000c0c00000c0c00000808000000b
:10591c00000000000000000000000000000000007b
:10592c00000000000000000000000000e0f8000093
:10593c00fcfe0000ff3f00000f0700000703000003
:10594c00030300000303000003030000070700002b
:10595c00070f00003fff0000fefc0000f8e0000015
:10596c00000000000000000000000000000000002b
:10597c00071f00003f7f0000fffc0000f8f0000054
:10598c00e0c00000c0c000008080000000000000eb
:10599c0000800000c0e00000f8ff00007f3f000026
:1059ac001f070000000000000000000000000000c5
:1059bc0000000000c0e00000f0f80000fc3d00001a
:1059cc001f0f00000707000007070000070f00006b
:1059dc000f0f00001f1f00003f3f00007dfc000068
:1059ec00f8f00000e0c00000000000000000000023
:1059fc0000000000007f0000ffff0000ffff000020
:105a0c00c0000000000000000000000000000000ca
:105a1c00000000000000000000000000000000007a
:105a2c0000c10000ffff0000ffff00007f0000002e
:105a3c000000000000000000000000000103000056
:105a4c00070f00001f1f00003e3e00007c7c000082
:105a5c00787800007878000078780000783c0000b6
:105a6c003c3e00001f1f00000f0700000301000058
:105a7c00000000000000000000000000000000001a
:105a8c00000000000000000000000000000000000a
:105a9c0000000000000000000000000000000000fa
:105aac0000000000000000000000000000000000ea
:105abc0000000000000000000000000000000000da
